{"abi":[{"type":"constructor","inputs":[{"name":"stakeVault","type":"address","internalType":"address"},{"name":"taskManager","type":"address","internalType":"address"},{"name":"initialOwner","type":"address","internalType":"address"}],"stateMutability":"nonpayable"},{"type":"function","name":"MAX_MEMBERS_PER_PROJECT","inputs":[],"outputs":[{"name":"","type":"uint256","internalType":"uint256"}],"stateMutability":"view"},{"type":"function","name":"MAX_NAME_LENGTH","inputs":[],"outputs":[{"name":"","type":"uint256","internalType":"uint256"}],"stateMutability":"view"},{"type":"function","name":"MIN_STAKE_AMOUNT","inputs":[],"outputs":[{"name":"","type":"uint96","internalType":"uint96"}],"stateMutability":"view"},{"type":"function","name":"STAKE_VAULT","inputs":[],"outputs":[{"name":"","type":"address","internalType":"address"}],"stateMutability":"view"},{"type":"function","name":"TASK_MANAGER","inputs":[],"outputs":[{"name":"","type":"address","internalType":"address"}],"stateMutability":"view"},{"type":"function","name":"cancelProject","inputs":[{"name":"projectId","type":"uint256","internalType":"uint256"}],"outputs":[],"stateMutability":"nonpayable"},{"type":"function","name":"createProject","inputs":[{"name":"name","type":"string","internalType":"string"},{"name":"metadataURI","type":"string","internalType":"string"},{"name":"stakeAmount","type":"uint96","internalType":"uint96"}],"outputs":[{"name":"","type":"uint256","internalType":"uint256"}],"stateMutability":"nonpayable"},{"type":"function","name":"finalizeProject","inputs":[{"name":"projectId","type":"uint256","internalType":"uint256"}],"outputs":[],"stateMutability":"nonpayable"},{"type":"function","name":"getMember","inputs":[{"name":"projectId","type":"uint256","internalType":"uint256"},{"name":"member","type":"address","internalType":"address"}],"outputs":[{"name":"","type":"tuple","internalType":"struct DataTypes.Member","components":[{"name":"memberAddress","type":"address","internalType":"address"},{"name":"stakedAmount","type":"uint96","internalType":"uint96"},{"name":"joinedAt","type":"uint32","internalType":"uint32"},{"name":"status","type":"uint8","internalType":"enum DataTypes.MemberStatus"},{"name":"tasksCompleted","type":"uint16","internalType":"uint16"},{"name":"tasksRejected","type":"uint16","internalType":"uint16"}]}],"stateMutability":"view"},{"type":"function","name":"getMemberProjects","inputs":[{"name":"member","type":"address","internalType":"address"}],"outputs":[{"name":"","type":"uint256[]","internalType":"uint256[]"}],"stateMutability":"view"},{"type":"function","name":"getProject","inputs":[{"name":"projectId","type":"uint256","internalType":"uint256"}],"outputs":[{"name":"","type":"tuple","internalType":"struct DataTypes.Project","components":[{"name":"id","type":"uint256","internalType":"uint256"},{"name":"owner","type":"address","internalType":"address"},{"name":"name","type":"string","internalType":"string"},{"name":"metadataURI","type":"string","internalType":"string"},{"name":"stakeAmount","type":"uint96","internalType":"uint96"},{"name":"status","type":"uint8","internalType":"enum DataTypes.ProjectStatus"},{"name":"createdAt","type":"uint32","internalType":"uint32"},{"name":"memberCount","type":"uint32","internalType":"uint32"},{"name":"totalStaked","type":"uint96","internalType":"uint96"},{"name":"totalSlashed","type":"uint96","internalType":"uint96"}]}],"stateMutability":"view"},{"type":"function","name":"getProjectMembers","inputs":[{"name":"projectId","type":"uint256","internalType":"uint256"}],"outputs":[{"name":"","type":"address[]","internalType":"address[]"}],"stateMutability":"view"},{"type":"function","name":"getProjectStats","inputs":[{"name":"projectId","type":"uint256","internalType":"uint256"}],"outputs":[{"name":"activeMembers","type":"uint256","internalType":"uint256"},{"name":"returnedMembers","type":"uint256","internalType":"uint256"},{"name":"slashedMembers","type":"uint256","internalType":"uint256"}],"stateMutability":"view"},{"type":"function","name":"getUserProjects","inputs":[{"name":"owner","type":"address","internalType":"address"}],"outputs":[{"name":"","type":"uint256[]","internalType":"uint256[]"}],"stateMutability":"view"},{"type":"function","name":"isMember","inputs":[{"name":"projectId","type":"uint256","internalType":"uint256"},{"name":"member","type":"address","internalType":"address"}],"outputs":[{"name":"","type":"bool","internalType":"bool"}],"stateMutability":"view"},{"type":"function","name":"isProjectOwner","inputs":[{"name":"projectId","type":"uint256","internalType":"uint256"},{"name":"owner","type":"address","internalType":"address"}],"outputs":[{"name":"","type":"bool","internalType":"bool"}],"stateMutability":"view"},{"type":"function","name":"joinProject","inputs":[{"name":"projectId","type":"uint256","internalType":"uint256"}],"outputs":[],"stateMutability":"payable"},{"type":"function","name":"nextProjectId","inputs":[],"outputs":[{"name":"","type":"uint256","internalType":"uint256"}],"stateMutability":"view"},{"type":"function","name":"owner","inputs":[],"outputs":[{"name":"","type":"address","internalType":"address"}],"stateMutability":"view"},{"type":"function","name":"pause","inputs":[],"outputs":[],"stateMutability":"nonpayable"},{"type":"function","name":"paused","inputs":[],"outputs":[{"name":"","type":"bool","internalType":"bool"}],"stateMutability":"view"},{"type":"function","name":"renounceOwnership","inputs":[],"outputs":[],"stateMutability":"nonpayable"},{"type":"function","name":"transferOwnership","inputs":[{"name":"newOwner","type":"address","internalType":"address"}],"outputs":[],"stateMutability":"nonpayable"},{"type":"function","name":"unpause","inputs":[],"outputs":[],"stateMutability":"nonpayable"},{"type":"function","name":"updateMemberStats","inputs":[{"name":"projectId","type":"uint256","internalType":"uint256"},{"name":"member","type":"address","internalType":"address"},{"name":"approved","type":"bool","internalType":"bool"}],"outputs":[],"stateMutability":"nonpayable"},{"type":"event","name":"MemberJoined","inputs":[{"name":"projectId","type":"uint256","indexed":true,"internalType":"uint256"},{"name":"member","type":"address","indexed":true,"internalType":"address"},{"name":"stakedAmount","type":"uint96","indexed":false,"internalType":"uint96"},{"name":"timestamp","type":"uint32","indexed":false,"internalType":"uint32"}],"anonymous":false},{"type":"event","name":"OwnershipTransferred","inputs":[{"name":"previousOwner","type":"address","indexed":true,"internalType":"address"},{"name":"newOwner","type":"address","indexed":true,"internalType":"address"}],"anonymous":false},{"type":"event","name":"Paused","inputs":[{"name":"account","type":"address","indexed":false,"internalType":"address"}],"anonymous":false},{"type":"event","name":"ProjectCancelled","inputs":[{"name":"projectId","type":"uint256","indexed":true,"internalType":"uint256"},{"name":"timestamp","type":"uint32","indexed":false,"internalType":"uint32"}],"anonymous":false},{"type":"event","name":"ProjectCreated","inputs":[{"name":"projectId","type":"uint256","indexed":true,"internalType":"uint256"},{"name":"owner","type":"address","indexed":true,"internalType":"address"},{"name":"name","type":"string","indexed":false,"internalType":"string"},{"name":"stakeAmount","type":"uint96","indexed":false,"internalType":"uint96"},{"name":"timestamp","type":"uint32","indexed":false,"internalType":"uint32"}],"anonymous":false},{"type":"event","name":"ProjectFinalized","inputs":[{"name":"projectId","type":"uint256","indexed":true,"internalType":"uint256"},{"name":"totalReturned","type":"uint96","indexed":false,"internalType":"uint96"},{"name":"totalSlashed","type":"uint96","indexed":false,"internalType":"uint96"},{"name":"timestamp","type":"uint32","indexed":false,"internalType":"uint32"}],"anonymous":false},{"type":"event","name":"Unpaused","inputs":[{"name":"account","type":"address","indexed":false,"internalType":"address"}],"anonymous":false},{"type":"error","name":"AlreadyMember","inputs":[]},{"type":"error","name":"EnforcedPause","inputs":[]},{"type":"error","name":"ExpectedPause","inputs":[]},{"type":"error","name":"IncorrectStakeAmount","inputs":[]},{"type":"error","name":"InvalidProjectName","inputs":[]},{"type":"error","name":"InvalidStakeAmount","inputs":[]},{"type":"error","name":"MemberLimitReached","inputs":[]},{"type":"error","name":"NotMember","inputs":[]},{"type":"error","name":"OnlyProjectOwner","inputs":[]},{"type":"error","name":"OwnableInvalidOwner","inputs":[{"name":"owner","type":"address","internalType":"address"}]},{"type":"error","name":"OwnableUnauthorizedAccount","inputs":[{"name":"account","type":"address","internalType":"address"}]},{"type":"error","name":"ProjectAlreadyFinalized","inputs":[]},{"type":"error","name":"ProjectNotActive","inputs":[]},{"type":"error","name":"ProjectNotFound","inputs":[]},{"type":"error","name":"ReentrancyGuardReentrantCall","inputs":[]}],"bytecode":{"object":"0x60c0346200014e57601f62001cc938819003918201601f19168301916001600160401b0383118484101762000152578084926060946040528339810103126200014e576200004d8162000166565b906200006a6040620000626020840162000166565b920162000166565b60017f9b779b17422d0df92223018b32b4d1fa46e071723d6817e2486d003becc55f0055916001600160a01b0380841690811562000136575f8054610100600160a81b03198116600897881b610100600160a81b0316178255604051961c91909116907f8be0079c531659141344cd1fd0a4f28419497f9722a3daafe3b4186f6b6457e09080a360805260a05260018055611b4d90816200017c82396080518181816101400152818161055e015281816113050152611355015260a051818181611573015261167e0152f35b604051631e4fbdf760e01b81525f6004820152602490fd5b5f80fd5b634e487b7160e01b5f52604160045260245ffd5b51906001600160a01b03821682036200014e5756fe60806040526004361015610011575f80fd5b5f3560e01c8062a55e0214611760578063137089cf1461164e57806324941147146115c357806327ed7188146115a25780633ac257e01461155e5780633f4ba83a146114f75780634d798de5146111fa5780635c975abb146111d957806364ca28b5146110b95780636f555f8514610bb7578063715018a614610b5c57806371b2c56714610ae65780637d9e10f514610aa05780638456cb5914610a495780638607498514610a445780638b4968cf146109385780638da5cb5b1461090d578063ab0f2471146108cd578063d515d9d91461081b578063df98e5f9146104c2578063e32e723c1461043c578063e935b7b11461041f578063f0f3f2c81461020d578063f2fde38b146101735763f82814861461012b575f80fd5b3461016f575f36600319011261016f576040517f00000000000000000000000000000000000000000000000000000000000000006001600160a01b03168152602090f35b5f80fd5b3461016f57602036600319011261016f5761018c611791565b610194611a8a565b6001600160a01b038181169182156101f5575f8054610100600160a81b03198116600893841b610100600160a81b031617825590911c91909116907f8be0079c531659141344cd1fd0a4f28419497f9722a3daafe3b4186f6b6457e09080a3005b604051631e4fbdf760e01b81525f6004820152602490fd5b3461016f57602036600319011261016f576004355f61012060405161023181611875565b828152826020820152606060408201526060808201528260808201528260a08201528260c08201528260e0820152826101008201520152805f52600260205260405f20541561040d575f52600260205260405f206040519061029282611875565b8054825260018101546001600160a01b031660208301526102b5600282016119e8565b60408301526102c6600382016119e8565b606083015260048101546001600160601b0381166080840152600360ff8260601c1610156103f9576001600160601b039163ffffffff8260ff60059460601c1660a0870152818160681c1660c087015260881c1660e0850152015481811661010084015260601c1661012082015260405190602082528051602083015260018060a01b036020820151166040830152604081015161038b61037561014092836060870152610160860190611810565b6060840151858203601f19016080870152611810565b906001600160601b0360808401511660a085015260a08301519260038410156103f9576101206001600160601b0391869560c087015263ffffffff60c08201511660e087015263ffffffff60e082015116610100870152826101008201511682870152015116908301520390f35b634e487b7160e01b5f52602160045260245ffd5b604051632627b46560e11b8152600490fd5b3461016f575f36600319011261016f576020600154604051908152f35b3461016f5760208060031936011261016f576001600160a01b0361045e611791565b165f52600360205260405f20906040519081602084549182815201935f5260205f20915f905b8282106104ab576104a78561049b818903826118ae565b604051918291826117d5565b0390f35b835486529485019460019384019390910190610484565b60208060031936011261016f576004356104da611ab8565b6104e2611afa565b805f526002825260405f209182541561040d57600483019081549360ff8560601c1660038110156103f957610809575f84815260048352604080822033835284529020546001600160a01b03939084166107f7576001600160601b039182871634036107e557606463ffffffff809860881c1610156107d357847f000000000000000000000000000000000000000000000000000000000000000016803b1561016f575f6044916040519283809263021cd6d960e21b82528b600483015233602483015234905af180156107c8576107b9575b5082341696804216956040516105ca81611892565b338152868101908a8252878a85600160408501948d86526060810196828852600460808301965f885260a08401965f88525f52528d60405f2090335f52528860405f20925116906001600160601b0360a01b905160a01b161781550193511693835490519460048610156103f957925166ffff00000000001990931666ffffffffffffff1990911617938a1b64ff00000000169390931760289190911b66ffff00000000001617815561069b9161ffff9051825468ffff000000000000001916911660381b61ffff60381b16179055565b875f526005865260405f208054600160401b8110156107a5576106c39160018201815561199f565b819291549060031b9133831b921b1916179055335f52600685526106ea8760405f206119b4565b80835460881c1690811461079157825463ffffffff60881b191660019190910160881b63ffffffff60881b16179091556005019081549061072d878284166118f8565b16906001600160601b0319161790556040519384528301527f5810a9148ee63bd82ea957935a438f1b1065ac90c5e0ae7b21c30e8dc9198e2960403393a360017f9b779b17422d0df92223018b32b4d1fa46e071723d6817e2486d003becc55f0055005b634e487b7160e01b5f52601160045260245ffd5b634e487b7160e01b5f52604160045260245ffd5b6107c290611861565b876105b5565b6040513d5f823e3d90fd5b6040516382b675f560e01b8152600490fd5b604051636981c65d60e11b8152600490fd5b6040516340803a5f60e11b8152600490fd5b604051637701967760e01b8152600490fd5b3461016f5760208060031936011261016f576004355f526005815260405f20604051908183825491828152019081925f52845f20905f5b868282106108b0578686610868828803836118ae565b60405192839281840190828552518091526040840192915f5b82811061089057505050500390f35b83516001600160a01b031685528695509381019392810192600101610881565b83546001600160a01b031685529093019260019283019201610852565b3461016f57604036600319011261016f5760206108e861177b565b6004355f526002825260018060a01b0380600160405f20015416906040519216148152f35b3461016f575f36600319011261016f575f5460405160089190911c6001600160a01b03168152602090f35b3461016f57604036600319011261016f5761095161177b565b60405161095d81611892565b5f81525f60a0602092828482015282604082015282606082015282608082015201526004355f526004815260405f2060018060a01b038093165f52815260405f20604051916109ab83611892565b600182549285841685528285019360a01c845201549063ffffffff60408501818416815260ff84841c1692606087019360048110156103f95784526001600160601b0361ffff966080890199888860281c168b528860a08b019860381c1688526040519951168952511690870152511660408501525160048110156103f95760c0948391606086015251166080840152511660a0820152f35b611760565b3461016f575f36600319011261016f57610a61611a8a565b610a69611afa565b600160ff195f5416175f557f62e78cea01bee320cd4e420270b5ea74000d11b0c9f74754ebdbfc544b05a2586020604051338152a1005b3461016f57604036600319011261016f576020610abb61177b565b6004355f526004825260405f2060018060a01b038092165f52825260405f2054161515604051908152f35b3461016f5760208060031936011261016f576001600160a01b03610b08611791565b165f52600660205260405f20906040519081602084549182815201935f5260205f20915f905b828210610b45576104a78561049b818903826118ae565b835486529485019460019384019390910190610b2e565b3461016f575f36600319011261016f57610b74611a8a565b5f8054610100600160a81b03198116825560081c6001600160a01b03167f8be0079c531659141344cd1fd0a4f28419497f9722a3daafe3b4186f6b6457e08280a3005b3461016f57606036600319011261016f5760043567ffffffffffffffff811161016f57610be89036906004016117a7565b9060243567ffffffffffffffff811161016f57610c099036906004016117a7565b929091604435906001600160601b038216820361016f57610c28611afa565b821580156110af575b61109d5766038d7ea4c680006001600160601b0383161061108b57610c87600154946001860160015560405196610c6788611875565b868852336020890152610c7b368786611921565b60408901523691611921565b60608601526001600160601b03821660808601525f60a086015263ffffffff421660c08601525f60e08601525f6101008601525f610120860152835f52600260205260405f2090855182556001820160018060a01b036020880151166001600160601b0360a01b825416179055604086015180519067ffffffffffffffff82116107a5578190610d1a6002860154611967565b601f811161103b575b50602090601f8311600114610fd0575f92610fc5575b50508160011b915f199060031b1c19161760028301555b606086015180519067ffffffffffffffff82116107a5578190610d766003860154611967565b601f8111610f75575b50602090601f8311600114610f0a575f92610eff575b50508160011b915f199060031b1c19161760038301555b6001600160601b0360808701511660048301549360a08801519360038510156103f95760c089015160e08a015163ffffffff60881b199094166001600160a81b03199097169690961760609590951b60ff60601b169490941760689590951b63ffffffff60681b169490941760889190911b63ffffffff60881b1617600483015560209585937fcf540ec50392e406d82fb560aa4e4ec13434ca45d4c68cfd1a4334119780d9e5936001600160601b0392610ea49184906101209060050192826101008201511683198554161784550151168154906001600160601b0360601b9060601b16906001600160601b0360601b1916179055565b335f5260038852610eb88560405f206119b4565b85604051936060855281606086015260808501375f60808785010152168682015263ffffffff421660408201526080813395601f80199101168101030190a3604051908152f35b015190508880610d95565b600386015f908152602081209350601f198516905b818110610f5d5750908460019594939210610f45575b505050811b016003830155610dac565b01515f1960f88460031b161c19169055888080610f35565b92936020600181928786015181550195019301610f1f565b909150600385015f5260205f20601f840160051c810160208510610fbe575b90849392915b601f830160051c82018110610fb0575050610d7f565b5f8155859450600101610f9a565b5080610f94565b015190508880610d39565b600286015f908152602081209350601f198516905b818110611023575090846001959493921061100b575b505050811b016002830155610d50565b01515f1960f88460031b161c19169055888080610ffb565b92936020600181928786015181550195019301610fe5565b909150600285015f5260205f20601f840160051c810160208510611084575b90849392915b601f830160051c82018110611076575050610d23565b5f8155859450600101611060565b508061105a565b604051630103be3b60e21b8152600490fd5b604051637299cb4160e01b8152600490fd5b5060648311610c31565b3461016f5760208060031936011261016f576004355f805f91835f526005855260405f206040518082888294549384815201905f52885f20925f5b8a8282106111ba5750505061110b925003826118ae565b5f925b81518410156111a4575f86815260048852604090206001600160a01b0361113586856118d0565b51165f52875260019060ff8260405f200154891c1660048110156103f95780830361116d575061116490611913565b935b019261110e565b9094939060028103611189575061118390611913565b92611166565b90939060021901611166579461119e90611913565b94611166565b6060908584896040519384528301526040820152f35b85546001600160a01b03168452600195860195879550930192016110f4565b3461016f575f36600319011261016f57602060ff5f54166040519015158152f35b3461016f57602036600319011261016f57611213611ab8565b61121b611afa565b6004355f52600260205260405f2080541561040d5760018101546001600160a01b031633036114e55760ff600482015460601c1660038110156103f9576114d3575f806004355f52600560205260405f2091604051808460208296549384815201905f5260205f20925f5b8181106114b157505061129b925003846118ae565b5f905b83518210156113f9576001600160a01b036112b983866118d0565b5116906004355f52600460205260405f20825f5260205260405f209060ff600183015460201c1660048110156103f957600181036113cb575060018701546001600160a01b03908116907f0000000000000000000000000000000000000000000000000000000000000000163b1561016f57604051637f3aeafb60e01b81526004803590820152602481019490945260448401525f83606481837f00000000000000000000000000000000000000000000000000000000000000006001600160a01b03165af19182156107c8576001936113b3936113bc575b50808401805464ff0000000019166403000000001790555460a01c906118f8565b915b019061129e565b6113c590611861565b88611392565b600291949350146113e0575b506001906113b5565b600191936113f2915460a01c906118f8565b92906113d7565b60048501805460ff60601b1916600160601b1790556005850180546bffffffffffffffffffffffff60601b1916606083901b6bffffffffffffffffffffffff60601b1617905582604051916001600160601b03809216835216602082015263ffffffff421660408201527f74f518b26c1e10f3ff13fb25f0658ea91cd42f23a57412f4166d145f8cfac85c606060043592a260017f9b779b17422d0df92223018b32b4d1fa46e071723d6817e2486d003becc55f0055005b84546001600160a01b0316835260019485019488945060209093019201611286565b6040516330e2148560e01b8152600490fd5b6040516313c2813160e31b8152600490fd5b3461016f575f36600319011261016f5761150f611a8a565b5f5460ff81161561154c5760ff19165f557f5db9ee0a495bf2e6ff9c91a7834c1ba4fdd244a5e8aa4e537bd38aeae4b073aa6020604051338152a1005b604051638dfc202b60e01b8152600490fd5b3461016f575f36600319011261016f576040517f00000000000000000000000000000000000000000000000000000000000000006001600160a01b03168152602090f35b3461016f575f36600319011261016f57602060405166038d7ea4c680008152f35b3461016f57602036600319011261016f576004356115df611a8a565b805f52600260205260405f2080541561040d57600401805460ff8160601c1660038110156103f9576114d35760ff60601b1916600160611b1790556040514263ffffffff1681527fdd5770a22999232b885aad0c62b1ccc11d763beec2c86124f4e7241ec946b9bf90602090a2005b3461016f57606036600319011261016f5761166761177b565b604435801515810361016f576001600160a01b03917f0000000000000000000000000000000000000000000000000000000000000000831633036114e5576004355f5260046020528260405f2091165f5260205260405f20918254161561174e5715611719576001016117046116e461ffff835460281c1661184e565b825466ffff0000000000191660289190911b66ffff000000000016178255565b805464ff000000001916640200000000179055005b600161174c910161173161ffff825460381c1661184e565b61ffff60381b82549160381b169061ffff60381b1916179055565b005b60405163148fe22160e11b8152600490fd5b3461016f575f36600319011261016f57602060405160648152f35b602435906001600160a01b038216820361016f57565b600435906001600160a01b038216820361016f57565b9181601f8401121561016f5782359167ffffffffffffffff831161016f576020838186019501011161016f57565b60209060206040818301928281528551809452019301915f5b8281106117fc575050505090565b8351855293810193928101926001016117ee565b91908251928382525f5b84811061183a575050825f602080949584010152601f8019910116010190565b60208183018101518483018201520161181a565b61ffff8091169081146107915760010190565b67ffffffffffffffff81116107a557604052565b610140810190811067ffffffffffffffff8211176107a557604052565b60c0810190811067ffffffffffffffff8211176107a557604052565b90601f8019910116810190811067ffffffffffffffff8211176107a557604052565b80518210156118e45760209160051b010190565b634e487b7160e01b5f52603260045260245ffd5b9190916001600160601b038080941691160191821161079157565b5f1981146107915760010190565b92919267ffffffffffffffff82116107a5576040519161194b601f8201601f1916602001846118ae565b82948184528183011161016f578281602093845f960137010152565b90600182811c92168015611995575b602083101461198157565b634e487b7160e01b5f52602260045260245ffd5b91607f1691611976565b80548210156118e4575f5260205f2001905f90565b8054600160401b8110156107a5576119d19160018201815561199f565b819291549060031b91821b915f19901b1916179055565b9060405191825f82546119fa81611967565b908184526020946001916001811690815f14611a685750600114611a2a575b505050611a28925003836118ae565b565b5f90815285812095935091905b818310611a50575050611a2893508201015f8080611a19565b85548884018501529485019487945091830191611a37565b92505050611a2894925060ff191682840152151560051b8201015f8080611a19565b5f5460081c6001600160a01b03163303611aa057565b60405163118cdaa760e01b8152336004820152602490fd5b7f9b779b17422d0df92223018b32b4d1fa46e071723d6817e2486d003becc55f006002815414611ae85760029055565b604051633ee5aeb560e01b8152600490fd5b60ff5f5416611b0557565b60405163d93c066560e01b8152600490fdfea26469706673582212205f60ffad9941e7382a9086a36513a5f562fabc116ff52fe5055a45d7519b995364736f6c63430008180033","linkReferences":{}},"methodIdentifiers":{"MAX_MEMBERS_PER_PROJECT()":"00a55e02","MAX_NAME_LENGTH()":"86074985","MIN_STAKE_AMOUNT()":"27ed7188","STAKE_VAULT()":"f8281486","TASK_MANAGER()":"3ac257e0","cancelProject(uint256)":"24941147","createProject(string,string,uint96)":"6f555f85","finalizeProject(uint256)":"4d798de5","getMember(uint256,address)":"8b4968cf","getMemberProjects(address)":"71b2c567","getProject(uint256)":"f0f3f2c8","getProjectMembers(uint256)":"d515d9d9","getProjectStats(uint256)":"64ca28b5","getUserProjects(address)":"e32e723c","isMember(uint256,address)":"7d9e10f5","isProjectOwner(uint256,address)":"ab0f2471","joinProject(uint256)":"df98e5f9","nextProjectId()":"e935b7b1","owner()":"8da5cb5b","pause()":"8456cb59","paused()":"5c975abb","renounceOwnership()":"715018a6","transferOwnership(address)":"f2fde38b","unpause()":"3f4ba83a","updateMemberStats(uint256,address,bool)":"137089cf"},"id":42}