{"abi":[{"type":"constructor","inputs":[{"name":"projectFactory","type":"address","internalType":"address"},{"name":"stakeVault","type":"address","internalType":"address"},{"name":"contributionNFT","type":"address","internalType":"address"},{"name":"initialOwner","type":"address","internalType":"address"}],"stateMutability":"nonpayable"},{"type":"function","name":"CONTRIBUTION_NFT","inputs":[],"outputs":[{"name":"","type":"address","internalType":"address"}],"stateMutability":"view"},{"type":"function","name":"PROJECT_FACTORY","inputs":[],"outputs":[{"name":"","type":"address","internalType":"address"}],"stateMutability":"view"},{"type":"function","name":"STAKE_VAULT","inputs":[],"outputs":[{"name":"","type":"address","internalType":"address"}],"stateMutability":"view"},{"type":"function","name":"createTask","inputs":[{"name":"projectId","type":"uint256","internalType":"uint256"},{"name":"assignee","type":"address","internalType":"address"},{"name":"title","type":"string","internalType":"string"},{"name":"metadataURI","type":"string","internalType":"string"}],"outputs":[{"name":"","type":"uint256","internalType":"uint256"}],"stateMutability":"nonpayable"},{"type":"function","name":"createTasksBatch","inputs":[{"name":"projectId","type":"uint256","internalType":"uint256"},{"name":"assignees","type":"address[]","internalType":"address[]"},{"name":"titles","type":"string[]","internalType":"string[]"},{"name":"metadataURIs","type":"string[]","internalType":"string[]"}],"outputs":[{"name":"","type":"uint256[]","internalType":"uint256[]"}],"stateMutability":"nonpayable"},{"type":"function","name":"getProjectTaskStats","inputs":[{"name":"projectId","type":"uint256","internalType":"uint256"}],"outputs":[{"name":"total","type":"uint256","internalType":"uint256"},{"name":"pending","type":"uint256","internalType":"uint256"},{"name":"submitted","type":"uint256","internalType":"uint256"},{"name":"approved","type":"uint256","internalType":"uint256"},{"name":"rejected","type":"uint256","internalType":"uint256"}],"stateMutability":"view"},{"type":"function","name":"getProjectTasks","inputs":[{"name":"projectId","type":"uint256","internalType":"uint256"}],"outputs":[{"name":"","type":"uint256[]","internalType":"uint256[]"}],"stateMutability":"view"},{"type":"function","name":"getTaskInfo","inputs":[{"name":"taskId","type":"uint256","internalType":"uint256"}],"outputs":[{"name":"","type":"tuple","internalType":"struct DataTypes.Task","components":[{"name":"id","type":"uint256","internalType":"uint256"},{"name":"projectId","type":"uint256","internalType":"uint256"},{"name":"assignee","type":"address","internalType":"address"},{"name":"title","type":"string","internalType":"string"},{"name":"metadataURI","type":"string","internalType":"string"},{"name":"proofCID","type":"string","internalType":"string"},{"name":"status","type":"uint8","internalType":"enum DataTypes.TaskStatus"},{"name":"submittedAt","type":"uint32","internalType":"uint32"},{"name":"reviewedAt","type":"uint32","internalType":"uint32"},{"name":"rewardAmount","type":"uint96","internalType":"uint96"}]}],"stateMutability":"view"},{"type":"function","name":"getTaskSubmissions","inputs":[{"name":"taskId","type":"uint256","internalType":"uint256"}],"outputs":[{"name":"","type":"tuple[]","internalType":"struct TaskManager.SubmissionHistory[]","components":[{"name":"proofCID","type":"string","internalType":"string"},{"name":"timestamp","type":"uint32","internalType":"uint32"},{"name":"isActive","type":"bool","internalType":"bool"}]}],"stateMutability":"view"},{"type":"function","name":"getUserTasks","inputs":[{"name":"user","type":"address","internalType":"address"}],"outputs":[{"name":"","type":"uint256[]","internalType":"uint256[]"}],"stateMutability":"view"},{"type":"function","name":"nextTaskId","inputs":[],"outputs":[{"name":"","type":"uint256","internalType":"uint256"}],"stateMutability":"view"},{"type":"function","name":"owner","inputs":[],"outputs":[{"name":"","type":"address","internalType":"address"}],"stateMutability":"view"},{"type":"function","name":"pause","inputs":[],"outputs":[],"stateMutability":"nonpayable"},{"type":"function","name":"paused","inputs":[],"outputs":[{"name":"","type":"bool","internalType":"bool"}],"stateMutability":"view"},{"type":"function","name":"renounceOwnership","inputs":[],"outputs":[],"stateMutability":"nonpayable"},{"type":"function","name":"reviewTask","inputs":[{"name":"taskId","type":"uint256","internalType":"uint256"},{"name":"approved","type":"bool","internalType":"bool"}],"outputs":[],"stateMutability":"nonpayable"},{"type":"function","name":"setProjectFactory","inputs":[{"name":"_projectFactory","type":"address","internalType":"address"}],"outputs":[],"stateMutability":"nonpayable"},{"type":"function","name":"submitProof","inputs":[{"name":"taskId","type":"uint256","internalType":"uint256"},{"name":"proofCID","type":"string","internalType":"string"}],"outputs":[],"stateMutability":"nonpayable"},{"type":"function","name":"transferOwnership","inputs":[{"name":"newOwner","type":"address","internalType":"address"}],"outputs":[],"stateMutability":"nonpayable"},{"type":"function","name":"unpause","inputs":[],"outputs":[],"stateMutability":"nonpayable"},{"type":"event","name":"OwnershipTransferred","inputs":[{"name":"previousOwner","type":"address","indexed":true,"internalType":"address"},{"name":"newOwner","type":"address","indexed":true,"internalType":"address"}],"anonymous":false},{"type":"event","name":"Paused","inputs":[{"name":"account","type":"address","indexed":false,"internalType":"address"}],"anonymous":false},{"type":"event","name":"ProofSubmitted","inputs":[{"name":"taskId","type":"uint256","indexed":true,"internalType":"uint256"},{"name":"projectId","type":"uint256","indexed":true,"internalType":"uint256"},{"name":"assignee","type":"address","indexed":true,"internalType":"address"},{"name":"proofCID","type":"string","indexed":false,"internalType":"string"},{"name":"timestamp","type":"uint32","indexed":false,"internalType":"uint32"}],"anonymous":false},{"type":"event","name":"TaskCreated","inputs":[{"name":"taskId","type":"uint256","indexed":true,"internalType":"uint256"},{"name":"projectId","type":"uint256","indexed":true,"internalType":"uint256"},{"name":"assignee","type":"address","indexed":true,"internalType":"address"},{"name":"title","type":"string","indexed":false,"internalType":"string"},{"name":"timestamp","type":"uint32","indexed":false,"internalType":"uint32"}],"anonymous":false},{"type":"event","name":"TaskReviewed","inputs":[{"name":"taskId","type":"uint256","indexed":true,"internalType":"uint256"},{"name":"projectId","type":"uint256","indexed":true,"internalType":"uint256"},{"name":"reviewer","type":"address","indexed":true,"internalType":"address"},{"name":"approved","type":"bool","indexed":false,"internalType":"bool"},{"name":"timestamp","type":"uint32","indexed":false,"internalType":"uint32"}],"anonymous":false},{"type":"event","name":"TaskStatusUpdated","inputs":[{"name":"taskId","type":"uint256","indexed":true,"internalType":"uint256"},{"name":"oldStatus","type":"uint8","indexed":false,"internalType":"enum DataTypes.TaskStatus"},{"name":"newStatus","type":"uint8","indexed":false,"internalType":"enum DataTypes.TaskStatus"},{"name":"timestamp","type":"uint32","indexed":false,"internalType":"uint32"}],"anonymous":false},{"type":"event","name":"Unpaused","inputs":[{"name":"account","type":"address","indexed":false,"internalType":"address"}],"anonymous":false},{"type":"error","name":"EmptyTitle","inputs":[]},{"type":"error","name":"EnforcedPause","inputs":[]},{"type":"error","name":"ExpectedPause","inputs":[]},{"type":"error","name":"InvalidProofCID","inputs":[]},{"type":"error","name":"InvalidTaskStatus","inputs":[]},{"type":"error","name":"NotMember","inputs":[]},{"type":"error","name":"OnlyAssignee","inputs":[]},{"type":"error","name":"OnlyFactory","inputs":[]},{"type":"error","name":"OnlyProjectOwner","inputs":[]},{"type":"error","name":"OwnableInvalidOwner","inputs":[{"name":"owner","type":"address","internalType":"address"}]},{"type":"error","name":"OwnableUnauthorizedAccount","inputs":[{"name":"account","type":"address","internalType":"address"}]},{"type":"error","name":"ProjectNotActive","inputs":[]},{"type":"error","name":"ReentrancyGuardReentrantCall","inputs":[]},{"type":"error","name":"TaskNotFound","inputs":[]}],"bytecode":{"object":"0x6080346200015457601f6200231b38819003918201601f19168301916001600160401b03831184841017620001585780849260809460405283398101031262000154576200004d816200016c565b6200005b602083016200016c565b6200007760606200006f604086016200016c565b94016200016c565b60017f9b779b17422d0df92223018b32b4d1fa46e071723d6817e2486d003becc55f0055926001600160a01b03918285169081156200013c575f8054610100600160a81b03198116600898891b610100600160a81b03161782556040519786949291901c8416907f8be0079c531659141344cd1fd0a4f28419497f9722a3daafe3b4186f6b6457e09080a38160018060a01b03199516856001541617600155168360025416176002551690600354161760035560016004556121999081620001828239f35b604051631e4fbdf760e01b81525f6004820152602490fd5b5f80fd5b634e487b7160e01b5f52604160045260245ffd5b51906001600160a01b0382168203620001545756fe60806040526004361015610011575f80fd5b5f803560e01c80632835e03714611a6e5780632af005101461160d5780633e04b3f814610f055780633f4ba83a14610e9e57806347d10fd814610b0e578063591c564f14610aa65780635c975abb14610a845780635d7b6cd414610a5b5780636dd9d36214610a32578063715018a6146109d55780638456cb591461097c5780638da5cb5b1461095157806395d57660146108cf578063c4409a711461075a578063d0e95fd314610701578063d1a1b999146104ce578063f2fde38b14610431578063f3ba26311461013f578063f8281486146101165763fdc3d8d7146100f6575f80fd5b346101135780600319360112610113576020600454604051908152f35b80fd5b50346101135780600319360112610113576002546040516001600160a01b039091168152602090f35b5034610113576080366003190112610113576001600160401b0360243581811161042d57610171903690600401611c68565b90916044358181116104295761018b903690600401611c68565b9091606435908111610425576101a5903690600401611c68565b909260018060a01b0360015416604051631e1e7e5960e31b815260043560048201528881602481855afa90811561041a578991610400575b50602001516001600160a01b031633036103ee578760249160405192838092631e1e7e5960e31b825260043560048301525afa80156103e35760a09189916103c1575b50015160038110156103ad5761039b576102386120f8565b828514801590610391575b6103805761025085611d03565b9561025e6040519788611ce2565b858752601f1961026d87611d03565b01366020890137875b86811061028f576040518061028b8a82611c20565b0390f35b600581901b820135906001600160a01b038216820361037c5760206102b58288876120b7565b90936103126102c5858a8d6120b7565b61030060405198899687966307c0967f60e31b8852600435600489015260018060a01b03166024880152608060448801526084870191611ff2565b84810360031901606486015291611ff2565b03818d305af18015610371578a9061033a575b60019250610333828b612081565b5201610276565b506020823d602011610369575b8161035460209383611ce2565b810103126103655760019151610325565b5f80fd5b3d9150610347565b6040513d8c823e3d90fd5b8980fd5b604051621311c960e71b8152600490fd5b5081851415610243565b604051637701967760e01b8152600490fd5b634e487b7160e01b88526021600452602488fd5b6103dd91503d808b833e6103d58183611ce2565b810190611e7c565b5f610220565b6040513d8a823e3d90fd5b6040516313c2813160e31b8152600490fd5b61041491503d808b833e6103d58183611ce2565b5f6101dd565b6040513d8b823e3d90fd5b8580fd5b8480fd5b8280fd5b50346101135760203660031901126101135761044b611c0a565b610453612115565b6001600160a01b038181169182156104b5575f8054610100600160a81b03198116600893841b610100600160a81b031617825590911c91909116907f8be0079c531659141344cd1fd0a4f28419497f9722a3daafe3b4186f6b6457e09080a380f35b604051631e4fbdf760e01b815260048101859052602490fd5b50346101135760203660031901126101135760043590806101206040516104f481611cb3565b82815282602082015282604082015260608082015260606080820152606060a08201528260c08201528260e082015282610100820152015281815260056020526040812054156106ef57604091815260056020522060066040519161055883611cb3565b805483526001810154602084015260028101546001600160a01b0316604080850191909152516105968161058f8160038601611d52565b0382611ce2565b60608401526040516105af8161058f8160048601611d52565b60808401526040516105c88161058f8160058601611d52565b60a0840152015460ff81169060058210156106db576001600160601b039160c084015263ffffffff8160081c1660e084015263ffffffff8160281c1661010084015260481c16610120820152604051809160208252805160208301526020810151604083015260018060a01b03604082015116606083015260608101516001600160601b0361012061069c61066b61014094856080890152610160880190611bb8565b610687608087015191601f1992838a83030160a08b0152611bb8565b9060a0870151908883030160c0890152611bb8565b936106af60c082015160e0880190611c5b565b63ffffffff60e08201511661010087015263ffffffff6101008201511682870152015116908301520390f35b634e487b7160e01b5f52602160045260245ffd5b60405163c325ae3360e01b8152600490fd5b50346101135760203660031901126101135761071b611c0a565b610723612115565b6001600160a01b03168015610748576001600160601b0360a01b600154161760015580f35b604051630636a15760e11b8152600490fd5b5034610113576020806003193601126108cb57908081829083926004358552600695600681526040862096604051809889918482549182815201918a52848a20908a5b8181106108b457505050906107b3910389611ce2565b87519680915b8883106107e15750505060a09650604051958652850152604084015260608301526080820152f35b9091936107ee858b612081565b518352600580855260ff83604086200154169081101561089457806108235750610819600191612095565b945b0191906107b9565b5f969195966001821480156108a8575b1561084b575050610845600191612095565b9561081b565b97919697610894576003810361086d5750610867600191612095565b9661081b565b909690600414610880575b60019061081b565b9661088c600191612095565b979050610878565b634e487b7160e01b84526021600452602484fd5b50505f60028214610833565b825484528c9450928601926001928301920161079d565b5080fd5b5034610113576020806003193601126108cb576001600160a01b036108f2611c0a565b1682526007602052604082209160405180926020855492838152019483526020832092905b82821061093a5761028b8561092e81890382611ce2565b60405191829182611c20565b835486529485019460019384019390910190610917565b50346101135780600319360112610113575460405160089190911c6001600160a01b03168152602090f35b5034610113578060031936011261011357610995612115565b61099d6120f8565b600160ff198254161781557f62e78cea01bee320cd4e420270b5ea74000d11b0c9f74754ebdbfc544b05a2586020604051338152a180f35b50346101135780600319360112610113576109ee612115565b5f8054610100600160a81b03198116825560081c6001600160a01b03167f8be0079c531659141344cd1fd0a4f28419497f9722a3daafe3b4186f6b6457e08280a380f35b50346101135780600319360112610113576001546040516001600160a01b039091168152602090f35b50346101135780600319360112610113576003546040516001600160a01b039091168152602090f35b503461011357806003193601126101135760ff60209154166040519015158152f35b5034610113576020806003193601126108cb5760043582526006602052604082209160405180926020855492838152019483526020832092905b828210610af75761028b8561092e81890382611ce2565b835486529485019460019384019390910190610ae0565b50346103655760403660031901126103655760043560243580151591828203610365576002917f9b779b17422d0df92223018b32b4d1fa46e071723d6817e2486d003becc55f009280845414610e8c57808455610b696120f8565b825f526020906005825260405f20908154156106ef5760018060a01b039081600154169160018401925f8454602460405180948193631e1e7e5960e31b835260048301525afa8015610e675786915f91610e72575b5001938185511633036103ee576006810194855460ff81169860058a10156106db5760018a036103805715610d9b575050845468ffffffff00000000ff19164260281b68ffffffff00000000001617600317855581835416918b85549483019482865416853b1561042d57604051633b24903960e01b815260048101929092526001600160a01b031660248201529381908590604490829084905af1938415610d8e578894610d71575b50509283610cb394600354169154168c8654916040519687958694859363bb7fde7160e01b8552600485015260248401528d6044840152608060648401526005608484019101611d52565b03925af1801561041a57610d3e575b5095610d3460609360ff5f80516020612144833981519152969460019a5b549463ffffffff42169560405191825286858301528a7f951deab4d8a4871aa5ff6981065b044647aec4f59f48f135b10bfd27b210082f60403394a4541690610d2c6040518096611c5b565b840190611c5b565b6040820152a25580f35b92809492979193813d8311610d6a575b610d588183611ce2565b8101031261036557959092915f610cc2565b503d610d4e565b610d7d91929450611ccf565b610d8a5785918b5f610c68565b8a80fd5b50604051903d90823e3d90fd5b68ffffffff00000000ff19164260281b68ffffffff000000000016176004178655939a9995949390918080855416948d549401541691511692803b15610365575f92836064926040519687958694637f3aeafb60e01b86526004860152602485015260448401525af18015610e6757610e32575b5091610d345f80516020612144833981519152949260ff60609560019a9b610ce0565b600197505f80516020612144833981519152949260ff60609593610e58610d3494611ccf565b5f9a5093955050929450610e0f565b6040513d5f823e3d90fd5b610e8691503d805f833e6103d58183611ce2565b5f610bbe565b604051633ee5aeb560e01b8152600490fd5b34610365575f36600319011261036557610eb6612115565b5f5460ff811615610ef35760ff19165f557f5db9ee0a495bf2e6ff9c91a7834c1ba4fdd244a5e8aa4e537bd38aeae4b073aa6020604051338152a1005b604051638dfc202b60e01b8152600490fd5b34610365576080366003190112610365576024356001600160a01b0381169003610365576044356001600160401b03811161036557610f48903690600401611bdd565b6064356001600160401b03811161036557610f67903690600401611bdd565b600154604051631e1e7e5960e31b80825260048035908301529394936001600160a01b0390921691905f81602481865afa908115610e67575f916115f3575b50602001516001600160a01b031633036103ee5760405190815260043560048201525f81602481855afa8015610e675760a0915f916115d9575b50015160038110156106db5761039b57610ff86120f8565b82156115c7576024356001600160a01b0316156114fe57604051638b4968cf60e01b81526004803590820152602480356001600160a01b0316908201529060c090829081806044810103915afa908115610e67575f91611510575b50516001600160a01b0316156114fe576110b160045493600185016004556040519261107e84611cb3565b85845260043560208501526024356001600160a01b031660408501526110a5368689611fbc565b60608501523691611fbc565b60808201526040518060208101106001600160401b0360208301111761140b57602081016040525f815260a08201525f60c08201525f60e08201525f6101008201525f610120820152825f52600560205260405f2081518155602082015160018201556002810160018060a01b036040840151166001600160601b0360a01b82541617905560608201518051906001600160401b03821161140b576111668261115d6003860154611d1a565b60038601611f6d565b602090601f83116001146114945761119592915f918361141f575b50508160011b915f199060031b1c19161790565b60038201555b60808201518051906001600160401b03821161140b576111cb826111c26004860154611d1a565b60048601611f6d565b602090601f831160011461142a576111f992915f918361141f5750508160011b915f199060031b1c19161790565b60048201555b60a08201518051906001600160401b03821161140b5761122f826112266005860154611d1a565b60058601611f6d565b602090601f831160011461139e57918061126192600695945f926113935750508160011b915f199060031b1c19161790565b60058201555b019360c08201519460058610156106db5761138885927f3b69c4a558017e719c07281394d9178b1da0ea31c1f670db7c0afe9f7782b5589260209860ff8019835416911617815561012063ffffffff966112de8860e083015116849064ffffffff0082549160081b169064ffffffff001916179055565b610100810151835468ffffffff0000000000191690891660281b68ffffffff00000000001617835501516bffffffffffffffffffffffff60481b82549160481b16906bffffffffffffffffffffffff60481b19161790556004355f526006885261134b8460405f20612046565b60018060a01b03602435165f52600788526113698460405f20612046565b60405191829160018060a01b0360243516976004359742169184612012565b0390a4604051908152f35b015190508980611181565b90601f19831691600585015f5260205f20925f5b8181106113f357509160019391856006979694106113db575b505050811b016005820155611267565b01515f1960f88460031b161c191690558880806113cb565b929360206001819287860151815501950193016113b2565b634e487b7160e01b5f52604160045260245ffd5b015190508880611181565b90601f19831691600485015f5260205f20925f5b81811061147c5750908460019594939210611464575b505050811b0160048201556111ff565b01515f1960f88460031b161c19169055878080611454565b9293602060018192878601518155019501930161143e565b90601f19831691600385015f5260205f20925f5b8181106114e657509084600195949392106114ce575b505050811b01600382015561119b565b01515f1960f88460031b161c191690558780806114be565b929360206001819287860151815501950193016114a8565b60405163148fe22160e11b8152600490fd5b905060c0813d60c0116115bf575b8161152b60c09383611ce2565b8101031261036557604051908160c08101106001600160401b0360c08401111761140b5760c0820160405261155f81611de3565b825261156d60208201611e57565b602083015261157e60408201611e6b565b604083015260608101516004811015610365576115b49160a09160608501526115a960808201612037565b608085015201612037565b60a082015285611053565b3d915061151e565b6040516352ddcdef60e11b8152600490fd5b6115ed91503d805f833e6103d58183611ce2565b87610fe0565b61160791503d805f833e6103d58183611ce2565b87610fa6565b346103655760403660031901126103655760246001600160401b0381358181116103655761163f903690600401611bdd565b6004355f908152600560205260409020600201546001600160a01b03939084163303611a5c5761166d6120f8565b6004355f52600560205260405f20906006820160ff815416956005871015611a125786151580611a51575b610380578415611a3f5760648511611a3f57600154165f60018501548960405180948193631e1e7e5960e31b835260048301525afa8015610e675760a0915f91611a25575b5001516003811015611a125761039b5760058301908285116119ff5761170d856117078454611d1a565b84611f6d565b5f9185601f8111600114611995578061173e9161175e955f9161198a575b508160011b915f199060031b1c19161790565b90555b805464ffffffffff19164260081b64ffffffff0016176001179055565b6004355f52600860205260405f20906040519161177a83611c98565b611785368688611fbc565b835263ffffffff4216602084015260016040840152805490600160401b8210156119775760018201808255821015611964575f5260205f2091835198895191821161195157506117e9816117de8460011b860154611d1a565b8460011b8601611f6d565b6020601f82116001146118db578160019798999a9261182092899695945f926118d05750508160011b915f199060031b1c19161790565b81841b8301555b821b01019063ffffffff60208201511664ff0000000060408454930151151560201b169164ffffffffff1916171790550154907f7c678c6952cfd8712112e3d2b25de927bd5a8d51b130dd7d20c263864337880f6040518061189633966004359563ffffffff42169184612012565b0390a46118a66040518092611c5b565b6001602082015263ffffffff421660408201525f80516020612144833981519152606060043592a2005b015190508c80611181565b8260011b84015f5260205f20995f5b601f198416811061193957509160019798999a8895949392869383601f19811610611921575b505050811b0181841b830155611827565b01515f1960f88460031b161c191690558b8080611910565b828201518c556001909b019a602092830192016118ea565b634e487b7160e01b5f9081526041600452fd5b88634e487b7160e01b5f5260326004525ffd5b88634e487b7160e01b5f5260416004525ffd5b90508901358c61172b565b505f81815260208120909387601f1981165b8087106119e15761175e9650106119c8575b5050600186811b019055611741565b8801355f19600389901b60f8161c1916905589806119b9565b8a8301358455602096870196600190940193909201918991506119a7565b87634e487b7160e01b5f5260416004525ffd5b87634e487b7160e01b5f5260216004525ffd5b611a3991503d805f833e6103d58183611ce2565b896116dd565b604051630178740360e31b8152600490fd5b506004871415611698565b60405163d934734d60e01b8152600490fd5b3461036557602080600319360112610365576004355f526008815260405f2090815491611a9a83611d03565b92611aa86040519485611ce2565b80845282840180925f52835f205f915b838310611b435750505050604051918083019381845251809452604083019360408160051b85010192915f955b828710611af25785850386f35b909192938280600192603f19898203018552875190604080611b1d6060855190808652850190611bb8565b9363ffffffff868201511686850152015115159101529601920196019592919092611ae5565b600286600192604099989951611b5881611c98565b604051611b698161058f818a611d52565b815260ff8587015463ffffffff811685840152841c1615156040820152815201920192019190959495611ab8565b5f5b838110611ba85750505f910152565b8181015183820152602001611b99565b90602091611bd181518092818552858086019101611b97565b601f01601f1916010190565b9181601f84011215610365578235916001600160401b038311610365576020838186019501011161036557565b600435906001600160a01b038216820361036557565b60209060206040818301928281528551809452019301915f5b828110611c47575050505090565b835185529381019392810192600101611c39565b9060058210156106db5752565b9181601f84011215610365578235916001600160401b038311610365576020808501948460051b01011161036557565b606081019081106001600160401b0382111761140b57604052565b61014081019081106001600160401b0382111761140b57604052565b6001600160401b03811161140b57604052565b90601f801991011681019081106001600160401b0382111761140b57604052565b6001600160401b03811161140b5760051b60200190565b90600182811c92168015611d48575b6020831014611d3457565b634e487b7160e01b5f52602260045260245ffd5b91607f1691611d29565b80545f9392611d6082611d1a565b918282526020936001916001811690815f14611dc45750600114611d86575b5050505050565b90939495505f92919252835f2092845f945b838610611db057505050500101905f80808080611d7f565b805485870183015294019385908201611d98565b60ff19168685015250505090151560051b010191505f80808080611d7f565b51906001600160a01b038216820361036557565b6001600160401b03811161140b57601f01601f191660200190565b81601f82011215610365578051611e2881611df7565b92611e366040519485611ce2565b8184526020828401011161036557611e549160208085019101611b97565b90565b51906001600160601b038216820361036557565b519063ffffffff8216820361036557565b6020818303126103655780516001600160401b0391828211610365570190610140828403126103655760405192611eb284611cb3565b82518452611ec260208401611de3565b602085015260408301518281116103655781611edf918501611e12565b6040850152606083015191821161036557611efb918301611e12565b6060830152611f0c60808201611e57565b608083015260a081015160038110156103655760a0830152611f3060c08201611e6b565b60c0830152611f4160e08201611e6b565b60e0830152610100611f54818301611e57565b90830152611f66610120809201611e57565b9082015290565b601f8211611f7a57505050565b5f5260205f20906020601f840160051c83019310611fb2575b601f0160051c01905b818110611fa7575050565b5f8155600101611f9c565b9091508190611f93565b929192611fc882611df7565b91611fd66040519384611ce2565b829481845281830111610365578281602093845f960137010152565b908060209392818452848401375f828201840152601f01601f1916010190565b9161203060209263ffffffff92969596604086526040860191611ff2565b9416910152565b519061ffff8216820361036557565b805490600160401b82101561140b576001820180825582101561206d575f5260205f200155565b634e487b7160e01b5f52603260045260245ffd5b805182101561206d5760209160051b010190565b5f1981146120a35760010190565b634e487b7160e01b5f52601160045260245ffd5b919081101561206d5760051b81013590601e19813603018212156103655701908135916001600160401b038311610365576020018236038113610365579190565b60ff5f541661210357565b60405163d93c066560e01b8152600490fd5b5f5460081c6001600160a01b0316330361212b57565b60405163118cdaa760e01b8152336004820152602490fdfe84bd5e0eec3c0543249e299cd1ece20b369deabb7375018e387aaea0215170f7a2646970667358221220f663cc70832362938c2c4a1f958aea16b2b5a44bd2b5de20815c111c761b649f64736f6c63430008180033","linkReferences":{}},"methodIdentifiers":{"CONTRIBUTION_NFT()":"5d7b6cd4","PROJECT_FACTORY()":"6dd9d362","STAKE_VAULT()":"f8281486","createTask(uint256,address,string,string)":"3e04b3f8","createTasksBatch(uint256,address[],string[],string[])":"f3ba2631","getProjectTaskStats(uint256)":"c4409a71","getProjectTasks(uint256)":"591c564f","getTaskInfo(uint256)":"d1a1b999","getTaskSubmissions(uint256)":"2835e037","getUserTasks(address)":"95d57660","nextTaskId()":"fdc3d8d7","owner()":"8da5cb5b","pause()":"8456cb59","paused()":"5c975abb","renounceOwnership()":"715018a6","reviewTask(uint256,bool)":"47d10fd8","setProjectFactory(address)":"d0e95fd3","submitProof(uint256,string)":"2af00510","transferOwnership(address)":"f2fde38b","unpause()":"3f4ba83a"},"id":44}