{"abi":[{"type":"constructor","inputs":[],"stateMutability":"nonpayable"},{"type":"receive","stateMutability":"payable"},{"type":"function","name":"depositStake","inputs":[{"name":"projectId","type":"uint256","internalType":"uint256"},{"name":"member","type":"address","internalType":"address"}],"outputs":[],"stateMutability":"payable"},{"type":"function","name":"emergencyWithdraw","inputs":[{"name":"to","type":"address","internalType":"address payable"},{"name":"amount","type":"uint256","internalType":"uint256"}],"outputs":[],"stateMutability":"nonpayable"},{"type":"function","name":"getContractBalance","inputs":[],"outputs":[{"name":"","type":"uint256","internalType":"uint256"}],"stateMutability":"view"},{"type":"function","name":"getPendingWithdrawal","inputs":[{"name":"user","type":"address","internalType":"address"}],"outputs":[{"name":"","type":"uint256","internalType":"uint256"}],"stateMutability":"view"},{"type":"function","name":"getStakedAmount","inputs":[{"name":"projectId","type":"uint256","internalType":"uint256"},{"name":"member","type":"address","internalType":"address"}],"outputs":[{"name":"","type":"uint256","internalType":"uint256"}],"stateMutability":"view"},{"type":"function","name":"owner","inputs":[],"outputs":[{"name":"","type":"address","internalType":"address"}],"stateMutability":"view"},{"type":"function","name":"pause","inputs":[],"outputs":[],"stateMutability":"nonpayable"},{"type":"function","name":"paused","inputs":[],"outputs":[{"name":"","type":"bool","internalType":"bool"}],"stateMutability":"view"},{"type":"function","name":"pendingWithdrawals","inputs":[{"name":"","type":"address","internalType":"address"}],"outputs":[{"name":"","type":"uint256","internalType":"uint256"}],"stateMutability":"view"},{"type":"function","name":"projectFactory","inputs":[],"outputs":[{"name":"","type":"address","internalType":"address"}],"stateMutability":"view"},{"type":"function","name":"projectStakes","inputs":[{"name":"","type":"uint256","internalType":"uint256"},{"name":"","type":"address","internalType":"address"}],"outputs":[{"name":"","type":"uint256","internalType":"uint256"}],"stateMutability":"view"},{"type":"function","name":"releaseStake","inputs":[{"name":"projectId","type":"uint256","internalType":"uint256"},{"name":"member","type":"address","internalType":"address"}],"outputs":[],"stateMutability":"nonpayable"},{"type":"function","name":"renounceOwnership","inputs":[],"outputs":[],"stateMutability":"nonpayable"},{"type":"function","name":"setProjectFactory","inputs":[{"name":"_projectFactory","type":"address","internalType":"address"}],"outputs":[],"stateMutability":"nonpayable"},{"type":"function","name":"setTaskManager","inputs":[{"name":"_taskManager","type":"address","internalType":"address"}],"outputs":[],"stateMutability":"nonpayable"},{"type":"function","name":"slashStake","inputs":[{"name":"projectId","type":"uint256","internalType":"uint256"},{"name":"member","type":"address","internalType":"address"},{"name":"recipient","type":"address","internalType":"address"}],"outputs":[],"stateMutability":"nonpayable"},{"type":"function","name":"taskManager","inputs":[],"outputs":[{"name":"","type":"address","internalType":"address"}],"stateMutability":"view"},{"type":"function","name":"totalLocked","inputs":[],"outputs":[{"name":"","type":"uint256","internalType":"uint256"}],"stateMutability":"view"},{"type":"function","name":"transferOwnership","inputs":[{"name":"newOwner","type":"address","internalType":"address"}],"outputs":[],"stateMutability":"nonpayable"},{"type":"function","name":"unpause","inputs":[],"outputs":[],"stateMutability":"nonpayable"},{"type":"function","name":"withdrawFunds","inputs":[],"outputs":[],"stateMutability":"nonpayable"},{"type":"event","name":"FundsWithdrawn","inputs":[{"name":"user","type":"address","indexed":true,"internalType":"address"},{"name":"amount","type":"uint256","indexed":false,"internalType":"uint256"},{"name":"timestamp","type":"uint32","indexed":false,"internalType":"uint32"}],"anonymous":false},{"type":"event","name":"OwnershipTransferred","inputs":[{"name":"previousOwner","type":"address","indexed":true,"internalType":"address"},{"name":"newOwner","type":"address","indexed":true,"internalType":"address"}],"anonymous":false},{"type":"event","name":"Paused","inputs":[{"name":"account","type":"address","indexed":false,"internalType":"address"}],"anonymous":false},{"type":"event","name":"StakeDeposited","inputs":[{"name":"projectId","type":"uint256","indexed":true,"internalType":"uint256"},{"name":"member","type":"address","indexed":true,"internalType":"address"},{"name":"amount","type":"uint96","indexed":false,"internalType":"uint96"},{"name":"timestamp","type":"uint32","indexed":false,"internalType":"uint32"}],"anonymous":false},{"type":"event","name":"StakeReleased","inputs":[{"name":"projectId","type":"uint256","indexed":true,"internalType":"uint256"},{"name":"member","type":"address","indexed":true,"internalType":"address"},{"name":"amount","type":"uint96","indexed":false,"internalType":"uint96"},{"name":"timestamp","type":"uint32","indexed":false,"internalType":"uint32"}],"anonymous":false},{"type":"event","name":"StakeSlashed","inputs":[{"name":"projectId","type":"uint256","indexed":true,"internalType":"uint256"},{"name":"member","type":"address","indexed":true,"internalType":"address"},{"name":"amount","type":"uint96","indexed":false,"internalType":"uint96"},{"name":"recipient","type":"address","indexed":true,"internalType":"address"},{"name":"timestamp","type":"uint32","indexed":false,"internalType":"uint32"}],"anonymous":false},{"type":"event","name":"Unpaused","inputs":[{"name":"account","type":"address","indexed":false,"internalType":"address"}],"anonymous":false},{"type":"error","name":"EnforcedPause","inputs":[]},{"type":"error","name":"ExpectedPause","inputs":[]},{"type":"error","name":"InsufficientBalance","inputs":[]},{"type":"error","name":"InvalidStakeAmount","inputs":[]},{"type":"error","name":"NoFundsToWithdraw","inputs":[]},{"type":"error","name":"OnlyFactory","inputs":[]},{"type":"error","name":"OwnableInvalidOwner","inputs":[{"name":"owner","type":"address","internalType":"address"}]},{"type":"error","name":"OwnableUnauthorizedAccount","inputs":[{"name":"account","type":"address","internalType":"address"}]},{"type":"error","name":"ReentrancyGuardReentrantCall","inputs":[]},{"type":"error","name":"StakeNotFound","inputs":[]},{"type":"error","name":"TransferFailed","inputs":[]}],"bytecode":{"object":"0x608080604052346100b15760017f9b779b17422d0df92223018b32b4d1fa46e071723d6817e2486d003becc55f0055331561009c575f8054610100600160a81b0319811633600881811b610100600160a81b031692909217845560405193909290911c6001600160a01b0316907f8be0079c531659141344cd1fd0a4f28419497f9722a3daafe3b4186f6b6457e09080a3610a0090816100b68239f35b631e4fbdf760e01b81525f6004820152602490fd5b5f80fdfe6080604081815260049182361015610021575b505050361561001f575f80fd5b005b5f3560e01c90816308735b64146107db5750806317cfd7c11461067257806324600fc3146106f8578063327d0a60146106b15780633a71ede8146106725780633b249039146105c45780633f4ba83a1461057057806356891412146105525780635c975abb146105305780636f9fb98a14610516578063715018a6146104bb5780637ee8b2f8146104965780637f3aeafb146103855780638456cb591461032e5780638da5cb5b1461030357806395ccea671461028f57806397f5197414610267578063a50a640e1461023f578063d0e95fd3146101eb578063f2fde38b1461014c5763f3f43703146101145780610012565b34610148576020366003190112610148576020916001600160a01b036101386108bf565b165f528252805f20549051908152f35b5f80fd5b509034610148576020366003190112610148576101676108bf565b61016f61097e565b6001600160a01b038181169390929084156101d55750505f8054610100600160a81b03198116600893841b610100600160a81b031617825590911c91909116907f8be0079c531659141344cd1fd0a4f28419497f9722a3daafe3b4186f6b6457e09080a3005b905f6024925191631e4fbdf760e01b8352820152fd5b509034610148576020366003190112610148576102066108bf565b61020e61097e565b6001600160a01b031691821561023257600180546001600160a01b03191684179055005b51630636a15760e11b8152fd5b5034610148575f3660031901126101485760025490516001600160a01b039091168152602090f35b5034610148575f3660031901126101485760015490516001600160a01b039091168152602090f35b503461014857806003193601126101485781356001600160a01b0381169081900361014857602435906102c061097e565b6102c86109ac565b4782116102f4575f80809381935af16102df6108f6565b50156102e757005b516312171d8360e31b8152fd5b505051631e9acf1760e31b8152fd5b5034610148575f366003190112610148575f54905160089190911c6001600160a01b03168152602090f35b5034610148575f3660031901126101485760207f62e78cea01bee320cd4e420270b5ea74000d11b0c9f74754ebdbfc544b05a2589161036b61097e565b610373610961565b600160ff195f5416175f5551338152a1005b5090346101485760603660031901126101485780356103a26108a9565b916044359360018060a01b038086168096036101485780600154163303610488576103cb610961565b835f526003602052815f20941693845f52602052805f205491821561047a5791610475917f0bbd3a78459f71b8464291d77e7e2b3084451ad8209e437a9bbb478832d578e493855f526003602052815f20875f526020525f82812055875f52602052805f2061043b8382546108d5565b905561044982600554610954565b600555516bffffffffffffffffffffffff90911681524263ffffffff1660208201529081906040820190565b0390a4005b9051638c877d2160e01b8152fd5b5051630636a15760e11b8152fd5b5034610148576020366003190112610148576020916001600160a01b036101386108bf565b34610148575f366003190112610148576104d361097e565b5f8054610100600160a81b03198116825560081c6001600160a01b03167f8be0079c531659141344cd1fd0a4f28419497f9722a3daafe3b4186f6b6457e08280a3005b5034610148575f3660031901126101485751478152602090f35b5034610148575f3660031901126101485760209060ff5f541690519015158152f35b5034610148575f366003190112610148576020906005549051908152f35b5034610148575f3660031901126101485760207f5db9ee0a495bf2e6ff9c91a7834c1ba4fdd244a5e8aa4e537bd38aeae4b073aa916105ad61097e565b6105b56109ac565b60ff195f54165f5551338152a1005b5090346101485781600319360112610148578035906105e16108a9565b6001549093906001600160a01b03908116330361048857610600610961565b835f526003602052815f20941693845f52602052805f205491821561047a579161066d917f757e724830676dcb518d5a0507d3bfc836f0aff5060ca3b33f302e30992ebd4a93855f526003602052815f20875f526020525f82812055602052805f2061043b8382546108d5565b0390a3005b503461014857806003193601126101485760209161068e6108a9565b90355f5260038352815f209060018060a01b03165f528252805f20549051908152f35b509034610148576020366003190112610148576106cc6108bf565b6106d461097e565b6001600160a01b031691821561023257600280546001600160a01b03191684179055005b509034610148575f366003190112610148577f9b779b17422d0df92223018b32b4d1fa46e071723d6817e2486d003becc55f009060028254146107cd5760028255610741610961565b335f5280602052825f20549081156107bf57335f52806020525f848120555f80808085335af161076f6108f6565b50156107b157507fc253fcb8ac501221e294ad7add3e864991c6561eaef36ef2672ac33a229806ad836001945192835263ffffffff421660208401523392a255005b83516312171d8360e31b8152fd5b83516367e3990d60e01b8152fd5b8251633ee5aeb560e01b8152fd5b91809150600319360112610148578235916107f46108a9565b60015490946001600160a01b039290918316330361089d5750610815610961565b341561088f5750907f265dec58c19599ea5b12c43e8b27669453f6d705c51ea838866ac5f104d8f5b191835f526003602052815f20941693845f5260205234815f2055610864346005546108d5565b60055551346bffffffffffffffffffffffff1681524263ffffffff166020820152806040810161066d565b8251630103be3b60e21b8152fd5b630636a15760e11b8152fd5b602435906001600160a01b038216820361014857565b600435906001600160a01b038216820361014857565b919082018092116108e257565b634e487b7160e01b5f52601160045260245ffd5b3d1561094f5767ffffffffffffffff903d82811161093b5760405192601f8201601f19908116603f011684019081118482101761093b5760405282523d5f602084013e565b634e487b7160e01b5f52604160045260245ffd5b606090565b919082039182116108e257565b60ff5f541661096c57565b60405163d93c066560e01b8152600490fd5b5f5460081c6001600160a01b0316330361099457565b60405163118cdaa760e01b8152336004820152602490fd5b60ff5f5416156109b857565b604051638dfc202b60e01b8152600490fdfea2646970667358221220961f6fe37850532dcba8f80d6d5f1c3ac499d5a1b89fc51197ac44b40d092fb464736f6c63430008180033","linkReferences":{}},"methodIdentifiers":{"depositStake(uint256,address)":"08735b64","emergencyWithdraw(address,uint256)":"95ccea67","getContractBalance()":"6f9fb98a","getPendingWithdrawal(address)":"7ee8b2f8","getStakedAmount(uint256,address)":"3a71ede8","owner()":"8da5cb5b","pause()":"8456cb59","paused()":"5c975abb","pendingWithdrawals(address)":"f3f43703","projectFactory()":"97f51974","projectStakes(uint256,address)":"17cfd7c1","releaseStake(uint256,address)":"3b249039","renounceOwnership()":"715018a6","setProjectFactory(address)":"d0e95fd3","setTaskManager(address)":"327d0a60","slashStake(uint256,address,address)":"7f3aeafb","taskManager()":"a50a640e","totalLocked()":"56891412","transferOwnership(address)":"f2fde38b","unpause()":"3f4ba83a","withdrawFunds()":"24600fc3"},"id":43}