{"abi":[{"type":"constructor","inputs":[{"name":"name","type":"string","internalType":"string"},{"name":"symbol","type":"string","internalType":"string"},{"name":"soulbound","type":"bool","internalType":"bool"},{"name":"admin","type":"address","internalType":"address"},{"name":"minter","type":"address","internalType":"address"}],"stateMutability":"nonpayable"},{"type":"function","name":"ADMIN_ROLE","inputs":[],"outputs":[{"name":"","type":"bytes32","internalType":"bytes32"}],"stateMutability":"view"},{"type":"function","name":"DEFAULT_ADMIN_ROLE","inputs":[],"outputs":[{"name":"","type":"bytes32","internalType":"bytes32"}],"stateMutability":"view"},{"type":"function","name":"IS_SOULBOUND","inputs":[],"outputs":[{"name":"","type":"bool","internalType":"bool"}],"stateMutability":"view"},{"type":"function","name":"MINTER_ROLE","inputs":[],"outputs":[{"name":"","type":"bytes32","internalType":"bytes32"}],"stateMutability":"view"},{"type":"function","name":"approve","inputs":[{"name":"to","type":"address","internalType":"address"},{"name":"tokenId","type":"uint256","internalType":"uint256"}],"outputs":[],"stateMutability":"nonpayable"},{"type":"function","name":"balanceOf","inputs":[{"name":"owner","type":"address","internalType":"address"}],"outputs":[{"name":"","type":"uint256","internalType":"uint256"}],"stateMutability":"view"},{"type":"function","name":"baseTokenURI","inputs":[],"outputs":[{"name":"","type":"string","internalType":"string"}],"stateMutability":"view"},{"type":"function","name":"batchMint","inputs":[{"name":"recipients","type":"address[]","internalType":"address[]"},{"name":"projectIds","type":"uint256[]","internalType":"uint256[]"},{"name":"taskIds","type":"uint256[]","internalType":"uint256[]"},{"name":"proofCIDs","type":"string[]","internalType":"string[]"}],"outputs":[{"name":"","type":"uint256[]","internalType":"uint256[]"}],"stateMutability":"nonpayable"},{"type":"function","name":"burn","inputs":[{"name":"tokenId","type":"uint256","internalType":"uint256"}],"outputs":[],"stateMutability":"nonpayable"},{"type":"function","name":"exists","inputs":[{"name":"tokenId","type":"uint256","internalType":"uint256"}],"outputs":[{"name":"","type":"bool","internalType":"bool"}],"stateMutability":"view"},{"type":"function","name":"getApproved","inputs":[{"name":"tokenId","type":"uint256","internalType":"uint256"}],"outputs":[{"name":"","type":"address","internalType":"address"}],"stateMutability":"view"},{"type":"function","name":"getRoleAdmin","inputs":[{"name":"role","type":"bytes32","internalType":"bytes32"}],"outputs":[{"name":"","type":"bytes32","internalType":"bytes32"}],"stateMutability":"view"},{"type":"function","name":"getTokenByTask","inputs":[{"name":"taskId","type":"uint256","internalType":"uint256"}],"outputs":[{"name":"","type":"uint256","internalType":"uint256"}],"stateMutability":"view"},{"type":"function","name":"getTokenMetadata","inputs":[{"name":"tokenId","type":"uint256","internalType":"uint256"}],"outputs":[{"name":"","type":"tuple","internalType":"struct DataTypes.TokenMetadata","components":[{"name":"projectId","type":"uint256","internalType":"uint256"},{"name":"taskId","type":"uint256","internalType":"uint256"},{"name":"contributor","type":"address","internalType":"address"},{"name":"proofCID","type":"string","internalType":"string"},{"name":"mintedAt","type":"uint32","internalType":"uint32"}]}],"stateMutability":"view"},{"type":"function","name":"grantRole","inputs":[{"name":"role","type":"bytes32","internalType":"bytes32"},{"name":"account","type":"address","internalType":"address"}],"outputs":[],"stateMutability":"nonpayable"},{"type":"function","name":"hasRole","inputs":[{"name":"role","type":"bytes32","internalType":"bytes32"},{"name":"account","type":"address","internalType":"address"}],"outputs":[{"name":"","type":"bool","internalType":"bool"}],"stateMutability":"view"},{"type":"function","name":"isApprovedForAll","inputs":[{"name":"owner","type":"address","internalType":"address"},{"name":"operator","type":"address","internalType":"address"}],"outputs":[{"name":"","type":"bool","internalType":"bool"}],"stateMutability":"view"},{"type":"function","name":"isSoulbound","inputs":[],"outputs":[{"name":"","type":"bool","internalType":"bool"}],"stateMutability":"view"},{"type":"function","name":"mint","inputs":[{"name":"to","type":"address","internalType":"address"},{"name":"projectId","type":"uint256","internalType":"uint256"},{"name":"taskId","type":"uint256","internalType":"uint256"},{"name":"proofCID","type":"string","internalType":"string"}],"outputs":[{"name":"","type":"uint256","internalType":"uint256"}],"stateMutability":"nonpayable"},{"type":"function","name":"name","inputs":[],"outputs":[{"name":"","type":"string","internalType":"string"}],"stateMutability":"view"},{"type":"function","name":"nextTokenId","inputs":[],"outputs":[{"name":"","type":"uint256","internalType":"uint256"}],"stateMutability":"view"},{"type":"function","name":"ownerOf","inputs":[{"name":"tokenId","type":"uint256","internalType":"uint256"}],"outputs":[{"name":"","type":"address","internalType":"address"}],"stateMutability":"view"},{"type":"function","name":"pause","inputs":[],"outputs":[],"stateMutability":"nonpayable"},{"type":"function","name":"paused","inputs":[],"outputs":[{"name":"","type":"bool","internalType":"bool"}],"stateMutability":"view"},{"type":"function","name":"renounceRole","inputs":[{"name":"role","type":"bytes32","internalType":"bytes32"},{"name":"callerConfirmation","type":"address","internalType":"address"}],"outputs":[],"stateMutability":"nonpayable"},{"type":"function","name":"revokeRole","inputs":[{"name":"role","type":"bytes32","internalType":"bytes32"},{"name":"account","type":"address","internalType":"address"}],"outputs":[],"stateMutability":"nonpayable"},{"type":"function","name":"safeTransferFrom","inputs":[{"name":"from","type":"address","internalType":"address"},{"name":"to","type":"address","internalType":"address"},{"name":"tokenId","type":"uint256","internalType":"uint256"}],"outputs":[],"stateMutability":"nonpayable"},{"type":"function","name":"safeTransferFrom","inputs":[{"name":"from","type":"address","internalType":"address"},{"name":"to","type":"address","internalType":"address"},{"name":"tokenId","type":"uint256","internalType":"uint256"},{"name":"data","type":"bytes","internalType":"bytes"}],"outputs":[],"stateMutability":"nonpayable"},{"type":"function","name":"setApprovalForAll","inputs":[{"name":"operator","type":"address","internalType":"address"},{"name":"approved","type":"bool","internalType":"bool"}],"outputs":[],"stateMutability":"nonpayable"},{"type":"function","name":"setBaseURI","inputs":[{"name":"baseURI","type":"string","internalType":"string"}],"outputs":[],"stateMutability":"nonpayable"},{"type":"function","name":"supportsInterface","inputs":[{"name":"interfaceId","type":"bytes4","internalType":"bytes4"}],"outputs":[{"name":"","type":"bool","internalType":"bool"}],"stateMutability":"view"},{"type":"function","name":"symbol","inputs":[],"outputs":[{"name":"","type":"string","internalType":"string"}],"stateMutability":"view"},{"type":"function","name":"tokenURI","inputs":[{"name":"tokenId","type":"uint256","internalType":"uint256"}],"outputs":[{"name":"","type":"string","internalType":"string"}],"stateMutability":"view"},{"type":"function","name":"transferFrom","inputs":[{"name":"from","type":"address","internalType":"address"},{"name":"to","type":"address","internalType":"address"},{"name":"tokenId","type":"uint256","internalType":"uint256"}],"outputs":[],"stateMutability":"nonpayable"},{"type":"function","name":"unpause","inputs":[],"outputs":[],"stateMutability":"nonpayable"},{"type":"event","name":"Approval","inputs":[{"name":"owner","type":"address","indexed":true,"internalType":"address"},{"name":"approved","type":"address","indexed":true,"internalType":"address"},{"name":"tokenId","type":"uint256","indexed":true,"internalType":"uint256"}],"anonymous":false},{"type":"event","name":"ApprovalForAll","inputs":[{"name":"owner","type":"address","indexed":true,"internalType":"address"},{"name":"operator","type":"address","indexed":true,"internalType":"address"},{"name":"approved","type":"bool","indexed":false,"internalType":"bool"}],"anonymous":false},{"type":"event","name":"BatchMetadataUpdate","inputs":[{"name":"_fromTokenId","type":"uint256","indexed":false,"internalType":"uint256"},{"name":"_toTokenId","type":"uint256","indexed":false,"internalType":"uint256"}],"anonymous":false},{"type":"event","name":"ContributionNFTMinted","inputs":[{"name":"tokenId","type":"uint256","indexed":true,"internalType":"uint256"},{"name":"projectId","type":"uint256","indexed":true,"internalType":"uint256"},{"name":"taskId","type":"uint256","indexed":true,"internalType":"uint256"},{"name":"contributor","type":"address","indexed":false,"internalType":"address"},{"name":"proofCID","type":"string","indexed":false,"internalType":"string"},{"name":"timestamp","type":"uint32","indexed":false,"internalType":"uint32"}],"anonymous":false},{"type":"event","name":"MetadataUpdate","inputs":[{"name":"_tokenId","type":"uint256","indexed":false,"internalType":"uint256"}],"anonymous":false},{"type":"event","name":"Paused","inputs":[{"name":"account","type":"address","indexed":false,"internalType":"address"}],"anonymous":false},{"type":"event","name":"RoleAdminChanged","inputs":[{"name":"role","type":"bytes32","indexed":true,"internalType":"bytes32"},{"name":"previousAdminRole","type":"bytes32","indexed":true,"internalType":"bytes32"},{"name":"newAdminRole","type":"bytes32","indexed":true,"internalType":"bytes32"}],"anonymous":false},{"type":"event","name":"RoleGranted","inputs":[{"name":"role","type":"bytes32","indexed":true,"internalType":"bytes32"},{"name":"account","type":"address","indexed":true,"internalType":"address"},{"name":"sender","type":"address","indexed":true,"internalType":"address"}],"anonymous":false},{"type":"event","name":"RoleRevoked","inputs":[{"name":"role","type":"bytes32","indexed":true,"internalType":"bytes32"},{"name":"account","type":"address","indexed":true,"internalType":"address"},{"name":"sender","type":"address","indexed":true,"internalType":"address"}],"anonymous":false},{"type":"event","name":"Transfer","inputs":[{"name":"from","type":"address","indexed":true,"internalType":"address"},{"name":"to","type":"address","indexed":true,"internalType":"address"},{"name":"tokenId","type":"uint256","indexed":true,"internalType":"uint256"}],"anonymous":false},{"type":"event","name":"Unpaused","inputs":[{"name":"account","type":"address","indexed":false,"internalType":"address"}],"anonymous":false},{"type":"error","name":"AccessControlBadConfirmation","inputs":[]},{"type":"error","name":"AccessControlUnauthorizedAccount","inputs":[{"name":"account","type":"address","internalType":"address"},{"name":"neededRole","type":"bytes32","internalType":"bytes32"}]},{"type":"error","name":"ERC721IncorrectOwner","inputs":[{"name":"sender","type":"address","internalType":"address"},{"name":"tokenId","type":"uint256","internalType":"uint256"},{"name":"owner","type":"address","internalType":"address"}]},{"type":"error","name":"ERC721InsufficientApproval","inputs":[{"name":"operator","type":"address","internalType":"address"},{"name":"tokenId","type":"uint256","internalType":"uint256"}]},{"type":"error","name":"ERC721InvalidApprover","inputs":[{"name":"approver","type":"address","internalType":"address"}]},{"type":"error","name":"ERC721InvalidOperator","inputs":[{"name":"operator","type":"address","internalType":"address"}]},{"type":"error","name":"ERC721InvalidOwner","inputs":[{"name":"owner","type":"address","internalType":"address"}]},{"type":"error","name":"ERC721InvalidReceiver","inputs":[{"name":"receiver","type":"address","internalType":"address"}]},{"type":"error","name":"ERC721InvalidSender","inputs":[{"name":"sender","type":"address","internalType":"address"}]},{"type":"error","name":"ERC721NonexistentToken","inputs":[{"name":"tokenId","type":"uint256","internalType":"uint256"}]},{"type":"error","name":"EnforcedPause","inputs":[]},{"type":"error","name":"ExpectedPause","inputs":[]},{"type":"error","name":"InvalidMetadata","inputs":[]},{"type":"error","name":"InvalidProofCID","inputs":[]},{"type":"error","name":"SoulboundToken","inputs":[]},{"type":"error","name":"TokenNotExists","inputs":[]}],"bytecode":{"object":"0x60a0604052346200037a5762002980803803806200001d816200037e565b92833981019060a0818303126200037a5780516001600160401b0391908281116200037a578362000050918301620003a4565b9260209081830151908482116200037a576200006e918401620003a4565b9260408301519182151583036200037a576200009b6080620000936060870162000414565b950162000414565b9486519183831162000298575f54926001988985811c951680156200036f575b8386101462000279578190601f958681116200031c575b508390868311600114620002b8575f92620002ac575b50505f19600383901b1c191690891b175f555b8151938411620002985787548881811c911680156200028d575b82821014620002795783811162000231575b5080928411600114620001b9575091806200017494926200017b9796945f92620001ad575b50505f19600383901b1c191690871b1786555b6080526200016d8162000429565b5062000499565b506200053a565b5060095560405161236a9081620005d68239608051818181610362015281816112720152818161186e0152611b2f0152f35b015190505f806200014c565b9091879392601f198416855f52835f20935f905b82821062000217575050916200017b9897959391856200017498969410620001fe575b505050811b0186556200015f565b01515f1960f88460031b161c191690555f8080620001f0565b8484015186558b97909501949384019390810190620001cd565b885f52815f208480870160051c8201928488106200026f575b0160051c019089905b8281106200026357505062000127565b5f815501899062000253565b925081926200024a565b634e487b7160e01b5f52602260045260245ffd5b90607f169062000115565b634e487b7160e01b5f52604160045260245ffd5b015190505f80620000e8565b908b9350601f198316915f8052855f20925f5b87828210620003055750508411620002ec575b505050811b015f55620000fb565b01515f1960f88460031b161c191690555f8080620002de565b8385015186558f97909501949384019301620002cb565b9091505f8052835f208680850160051c82019286861062000365575b918d91869594930160051c01915b82811062000356575050620000d2565b5f81558594508d910162000346565b9250819262000338565b94607f1694620000bb565b5f80fd5b6040519190601f01601f191682016001600160401b038111838210176200029857604052565b919080601f840112156200037a5782516001600160401b0381116200029857602090620003da601f8201601f191683016200037e565b928184528282870101116200037a575f5b818110620004005750825f9394955001015290565b8581018301518482018401528201620003eb565b51906001600160a01b03821682036200037a57565b6001600160a01b03165f8181525f8051602062002960833981519152602052604090205460ff1662000494575f8181525f805160206200296083398151915260205260408120805460ff191660011790553391905f80516020620029408339815191528180a4600190565b505f90565b6001600160a01b03165f8181527fa70365933f78520ef41d6645ba61e509916296603327302d41466c063e8e260860205260409020547fa49807205ce4d355092ef5a8a18f56e8913cf4a201fbe287825b095693c21775919060ff166200053457815f52600760205260405f20815f5260205260405f20600160ff1982541617905533915f80516020620029408339815191525f80a4600190565b50505f90565b6001600160a01b03165f8181527fa4bfd7afe708e2e87e7f0e2ad9b4d545417e0f795f57b5c5ab5d799c565a04f460205260409020547f9f2df0fed2c77648de5860a4cc508cd0818c85b8b8a1ab4ceeef8d981c8956a6919060ff166200053457815f52600760205260405f20815f5260205260405f20600160ff1982541617905533915f80516020620029408339815191525f80a460019056fe6080806040526004361015610012575f80fd5b5f3560e01c90816301ffc9a7146116e45750806306fdde031461163d578063081812fc14611601578063095ea7b31461152057806322541dfc146114f657806323b872dd146114df578063248a9ca3146114b25780632f2ff15d1461147557806336568abe1461142e5780633f4ba83a146113c557806342842e0e1461139857806342966c68146111cf5780634f558e791461119557806355f804b3146110325780635c975abb146110105780636031680114610f025780636352211e14610ed257806370a0823114610e7c57806375794a3c14610e5f57806375b238fc14610e255780638456cb5914610dcc57806391d1485414610d8357806395d89b4114610ca5578063a217fddf14610c8b578063a22cb46514610bea578063b26fa5381461019d578063b3a80e9c14610968578063b88d4fde146108fd578063bb7fde71146102c3578063c87b56dd146102a4578063d53913931461026a578063d547741f1461022b578063d547cfb7146101f8578063e985e9c5146101a25763f7eca6d01461019d575f80fd5b611857565b346101f45760403660031901126101f4576101bb6117c9565b6101c36117df565b9060018060a01b038091165f52600560205260405f2091165f52602052602060ff60405f2054166040519015158152f35b5f80fd5b346101f4575f3660031901126101f4576102276102136119a3565b6040519182916020835260208301906117a4565b0390f35b346101f45760403660031901126101f45761026860043561024a6117df565b90805f526007602052610263600160405f2001546120b8565b612158565b005b346101f4575f3660031901126101f45760206040517f9f2df0fed2c77648de5860a4cc508cd0818c85b8b8a1ab4ceeef8d981c8956a68152f35b346101f45760203660031901126101f457610227610213600435611ddb565b346101f45760803660031901126101f4576102dc6117c9565b6064356001600160401b0381116101f4576102fb90369060040161182a565b919061030561205d565b61030d6121cc565b6001600160a01b0391808316156108d95783156108eb576044355f52600b60205260405f20546108d957600954916001830160095560405161034e816118de565b5f8152835f5260026020528460405f2054167f000000000000000000000000000000000000000000000000000000000000000090816108cf575b50806108c7575b6108b557835f5260026020528460405f2054169081151580610882575b8685165f52600360205260405f2060018154019055855f5260026020528560405f20936bffffffffffffffffffffffff60a01b9489881686825416179055888716907fddf252ad1be2c89b69c2b068fc378daa952ba7f163c4a11628f55a4df523b3ef5f80a461086a57833b610742575b506040519061042b826118c3565b60243582526020820190604435825260408301878616815261044e368a87611935565b916060850192835263ffffffff42166080860152875f52600a60205260405f209385518555516001850155886002850192511690825416179055518051906001600160401b0382116106ad576104b4826104ab600386015461196b565b60038601611d1b565b602090601f83116001146106cc57926104ee8360809460049463ffffffff975f926106c1575b50508160011b915f199060031b1c19161790565b60038201555b019201511663ffffffff198254161790556044355f52600b6020528260405f20556040519466697066733a2f2f60c81b60208701528082602788013761054c6027878381015f838201520360078101895201876118f9565b835f52600660205260405f20948651956001600160401b0387116106ad576020976105818861057b845461196b565b84611d1b565b8890601f89116001146106445797806105b4926105f798999a5f926106395750508160011b915f199060031b1c19161790565b90555b7ff8e1a15aba9398e019f0b49df1a4fde98ee17ae345cb5f6b5e2c27f5033e8ce787604051888152a1604051941684526060868501526060840191611d7a565b63ffffffff42166040830152827f43f1304aa56632bdb4b0b92f73d8689e61249480ac5fbd17c82552b337249f706044359380602435940390a4604051908152f35b015190508b806104da565b90825f52895f20915f5b601f198b16811061069657509189916001936105f7999a9b601f1981161061067e575b505050811b0190556105b7565b01515f1960f88460031b161c191690558a8080610671565b91928b60018192868501518155019401920161064e565b634e487b7160e01b5f52604160045260245ffd5b015190508d806104da565b90600384015f5260205f20915f5b601f198516811061072a57508360049363ffffffff9693600193608097601f19811610610712575b505050811b0160038201556104f4565b01515f1960f88460031b161c191690558c8080610702565b919260206001819286850151815501940192016106da565b604096949395965160208180610780630a85bd0160e11b958683523360048401525f60248401528960448401526080606484015260848301906117a4565b03815f8c8c165af15f9181610825575b506107f15787873d156107e9573d916107a88361191a565b926107b660405194856118f9565b83523d5f602085013e5b825192836107e257604051633250574960e11b81528284166004820152602490fd5b6020849101fd5b6060916107c0565b94969593946001600160e01b0319160361080b578661041d565b604051633250574960e11b81528584166004820152602490fd5b9091506020813d602011610862575b81610841602093836118f9565b810103126101f457516001600160e01b0319811681036101f4579089610790565b3d9150610834565b6040516339e3563760e11b81525f6004820152602490fd5b5f86815260046020526040902080546001600160a01b0319169055825f52600360205260405f205f1981540190556103ac565b604051636e10574960e01b8152600490fd5b50600161038f565b9050151587610388565b604051635e765b2560e11b8152600490fd5b604051630178740360e31b8152600490fd5b346101f45760803660031901126101f4576109166117c9565b61091e6117df565b90604435606435926001600160401b0384116101f457366023850112156101f457610956610268943690602481600401359101611935565b92610962838383611b06565b336121ea565b346101f45760803660031901126101f4576004356001600160401b0381116101f457610998903690600401611893565b906024356001600160401b0381116101f4576109b8903690600401611893565b906044356001600160401b0381116101f4576109d8903690600401611893565b916064356001600160401b0381116101f4576109f8903690600401611893565b949091610a0361205d565b610a0b6121cc565b818814801590610be0575b8015610bd6575b6108d957610a2a88611d53565b97610a38604051998a6118f9565b808952610a4481611d53565b601f19013660208b01375f5b818110610a9c57896040518091602082016020835281518091526020604084019201905f5b818110610a83575050500390f35b8251845285945060209384019390920191600101610a75565b610aa781838b611d6a565b35906001600160a01b03821682036101f457610ac4818686611d6a565b3591610ad1828a8a611d6a565b35928a831015610b83578260051b880135601e19893603018112156101f4578801918235926001600160401b0384116101f4576020019280360384136101f457602093610b5291604051978895869563bb7fde7160e01b875260018060a01b0316600487015260248601526044850152608060648501526084840191611d7a565b03815f305af1918215610bcb575f92610b97575b508a51811015610b835760019160208260051b8d01015201610a50565b634e487b7160e01b5f52603260045260245ffd5b9091506020813d602011610bc3575b81610bb3602093836118f9565b810103126101f45751908b610b66565b3d9150610ba6565b6040513d5f823e3d90fd5b5085881415610a1d565b5084881415610a16565b346101f45760403660031901126101f457610c036117c9565b602435908115158092036101f4576001600160a01b0316908115610c7257335f52600560205260405f20825f5260205260405f2060ff1981541660ff83161790556040519081527f17307eab39ab6107e8899845ad3d59bd9653f200f220920489ca2b5937696c3160203392a3005b604051630b61174360e31b815260048101839052602490fd5b346101f4575f3660031901126101f45760206040515f8152f35b346101f4575f3660031901126101f4576040515f60018260015492610cc98461196b565b92838352602094856001821691825f14610d63575050600114610d08575b50610cf4925003836118f9565b6102276040519282849384528301906117a4565b84915060015f527fb10e2d527612073b26eecdfd717e6a320cf44b4afac2b0732d9fcbe2b7fa0cf6905f915b858310610d4b575050610cf4935082010185610ce7565b80548389018501528794508693909201918101610d34565b60ff191685820152610cf495151560051b8501019250879150610ce79050565b346101f45760403660031901126101f457610d9c6117df565b6004355f52600760205260405f209060018060a01b03165f52602052602060ff60405f2054166040519015158152f35b346101f4575f3660031901126101f457610de4611fe4565b610dec6121cc565b600160ff1960085416176008557f62e78cea01bee320cd4e420270b5ea74000d11b0c9f74754ebdbfc544b05a2586020604051338152a1005b346101f4575f3660031901126101f45760206040517fa49807205ce4d355092ef5a8a18f56e8913cf4a201fbe287825b095693c217758152f35b346101f4575f3660031901126101f4576020600954604051908152f35b346101f45760203660031901126101f4576001600160a01b03610e9d6117c9565b168015610eba575f526003602052602060405f2054604051908152f35b6040516322718ad960e21b81525f6004820152602490fd5b346101f45760203660031901126101f4576020610ef0600435611fc2565b6040516001600160a01b039091168152f35b346101f4576020806003193601126101f4576004355f6080604051610f26816118c3565b82815282858201528260408201526060808201520152610f59815f52600260205260018060a01b0360405f205416151590565b15610fff575f52600a815260405f2060405190610f75826118c3565b805482526004610ff360018301549285850193845260018060a01b038060028301541660408701908152610fab60038401611a66565b926060880193845263ffffffff9586910154169560808801968752604051988998818a525190890152516040880152511660608601525160a0608086015260c08501906117a4565b91511660a08301520390f35b604051626f708760e21b8152600490fd5b346101f4575f3660031901126101f457602060ff600854166040519015158152f35b346101f4576020806003193601126101f4576001600160401b036004358181116101f45761106490369060040161182a565b9161106d611fe4565b82116106ad5761107e600c5461196b565b601f8111611140575b505f92601f83116001146110c557506110b5925f91836110ba5750508160011b915f199060031b1c19161790565b600c55005b0135905083806104da565b601f198316937fdf6966c971051c3d54ec59162606531493a51404a002842f56009d7e5cf4a8c792915f905b868210611128575050836001951061110f575b505050811b01600c55005b01355f19600384901b60f8161c19169055828080611104565b806001849682949587013581550195019201906110f1565b611185907fdf6966c971051c3d54ec59162606531493a51404a002842f56009d7e5cf4a8c7601f850160051c8101916020861061118b575b601f0160051c0190611d05565b83611087565b9091508190611178565b346101f45760203660031901126101f4576004355f908152600260209081526040909120546001600160a01b031615156040519015158152f35b346101f4576020806003193601126101f457600435906111ed611fe4565b5f828152600260205260409020546001600160a01b031615610fff57815f52600a8152600160405f2001545f52600b81525f6040812055815f52600a81525f6004604082208281558260018201558260028201556003810161124f815461196b565b908161135c575b505001555f8281526002825260409020546001600160a01b03907f000000000000000000000000000000000000000000000000000000000000000090821681611352575b508061134b575b6108b5575f83918282526002845260408220541660028115948515611319575b848452526040822080546001600160a01b03191690557fddf252ad1be2c89b69c2b068fc378daa952ba7f163c4a11628f55a4df523b3ef8280a461130157005b60249060405190637e27328960e01b82526004820152fd5b5f85815260046020526040902080546001600160a01b03191690558284526003815260408420841981540190556112c1565b505f6112a1565b905015158461129a565b81601f8693116001146113735750555b8580611256565b908083918252611391601f898420940160051c840160018501611d05565b555561136c565b346101f4576102686113a9366117f5565b90604051926113b7846118de565b5f8452610962838383611b06565b346101f4575f3660031901126101f4576113dd611fe4565b60085460ff81161561141c5760ff19166008557f5db9ee0a495bf2e6ff9c91a7834c1ba4fdd244a5e8aa4e537bd38aeae4b073aa6020604051338152a1005b604051638dfc202b60e01b8152600490fd5b346101f45760403660031901126101f4576114476117df565b336001600160a01b038216036114635761026890600435612158565b60405163334bd91960e11b8152600490fd5b346101f45760403660031901126101f4576102686004356114946117df565b90805f5260076020526114ad600160405f2001546120b8565b6120da565b346101f45760203660031901126101f4576004355f5260076020526020600160405f200154604051908152f35b346101f4576102686114f0366117f5565b91611b06565b346101f45760203660031901126101f4576004355f52600b602052602060405f2054604051908152f35b346101f45760403660031901126101f4576115396117c9565b60243561154581611fc2565b331515806115ee575b806115c5575b6115ad576001600160a01b039283169282918491167f8c5be1e5ebec7d5bd14f71427d1e84f3dd0314c0f7b2291e5b200ac8c7c3b9255f80a45f90815260046020526040902080546001600160a01b0319169091179055005b60405163a9fbf51f60e01b8152336004820152602490fd5b5060018060a01b0381165f52600560205260405f20335f5260205260ff60405f20541615611554565b506001600160a01b03811633141561154e565b346101f45760203660031901126101f45760043561161e81611fc2565b505f526004602052602060018060a01b0360405f205416604051908152f35b346101f4575f3660031901126101f4576040515f8054908261165e8361196b565b91828252602093600190856001821691825f14610d6357505060011461168b5750610cf4925003836118f9565b5f808052859250907f290decd9548b62a8d60345a988386fc84ba6bc95484008f6362f93160ef3e5635b8583106116cc575050610cf4935082010185610ce7565b805483890185015287945086939092019181016116b5565b346101f45760203660031901126101f4576004359063ffffffff60e01b82168092036101f457602091637965db0b60e01b8114908115611726575b5015158152f35b632483248360e11b811491508115611740575b508361171f565b6380ac58cd60e01b811491508115611772575b8115611761575b5083611739565b6301ffc9a760e01b1490508361175a565b635b5e139f60e01b81149150611753565b5f5b8381106117945750505f910152565b8181015183820152602001611785565b906020916117bd81518092818552858086019101611783565b601f01601f1916010190565b600435906001600160a01b03821682036101f457565b602435906001600160a01b03821682036101f457565b60609060031901126101f4576001600160a01b039060043582811681036101f4579160243590811681036101f4579060443590565b9181601f840112156101f4578235916001600160401b0383116101f457602083818601950101116101f457565b346101f4575f3660031901126101f45760206040517f000000000000000000000000000000000000000000000000000000000000000015158152f35b9181601f840112156101f4578235916001600160401b0383116101f4576020808501948460051b0101116101f457565b60a081019081106001600160401b038211176106ad57604052565b602081019081106001600160401b038211176106ad57604052565b90601f801991011681019081106001600160401b038211176106ad57604052565b6001600160401b0381116106ad57601f01601f191660200190565b9291926119418261191a565b9161194f60405193846118f9565b8294818452818301116101f4578281602093845f960137010152565b90600182811c92168015611999575b602083101461198557565b634e487b7160e01b5f52602260045260245ffd5b91607f169161197a565b604051905f82600c54916119b68361196b565b80835292602090600190818116908115611a4257506001146119e3575b50506119e1925003836118f9565b565b915092600c5f527fdf6966c971051c3d54ec59162606531493a51404a002842f56009d7e5cf4a8c7935f925b828410611a2a57506119e19450505081016020015f806119d3565b85548885018301529485019487945092810192611a0f565b915050602092506119e194915060ff191682840152151560051b8201015f806119d3565b9060405191825f8254611a788161196b565b908184526020946001916001811690815f14611ae45750600114611aa6575b5050506119e1925003836118f9565b5f90815285812095935091905b818310611acc5750506119e193508201015f8080611a97565b85548884018501529485019487945091830191611ab3565b925050506119e194925060ff191682840152151560051b8201015f8080611a97565b6001600160a01b039182169290918315611ced57815f526020926002845260409482865f2054167f00000000000000000000000000000000000000000000000000000000000000009081611ce3575b5080611cdb575b611cca578390815f526002865283875f2054169533151580611c38575b5060029087611c07575b825f5260038152885f2060018154019055835f5252865f20816bffffffffffffffffffffffff60a01b825416179055857fddf252ad1be2c89b69c2b068fc378daa952ba7f163c4a11628f55a4df523b3ef5f80a41692838303611be65750505050565b6064945051926364283d7b60e01b8452600484015260248301526044820152fd5b5f84815260046020526040812080546001600160a01b03191690558881526003825289902080545f19019055611b83565b9192509080611c89575b15611c50579084915f611b79565b868587611c6d576024915190637e27328960e01b82526004820152fd5b604491519063177e802f60e01b82523360048301526024820152fd5b503386148015611cae575b80611c425750845f52600481523384885f20541614611c42565b50855f5260058152865f20335f52815260ff875f205416611c94565b8551636e10574960e01b8152600490fd5b506001611b5c565b905015155f611b55565b604051633250574960e11b81525f6004820152602490fd5b818110611d10575050565b5f8155600101611d05565b9190601f8111611d2a57505050565b6119e1925f5260205f20906020601f840160051c8301931061118b57601f0160051c0190611d05565b6001600160401b0381116106ad5760051b60200190565b9190811015610b835760051b0190565b908060209392818452848401375f828201840152601f01601f1916010190565b60206119e1919392936040519481611dbb8793518092868087019101611783565b8201611dcf82518093868085019101611783565b010380855201836118f9565b611de481611fc2565b50805f526006602052611df960405f20611a66565b611e016119a3565b805115611fbc578151611fb2575050611e1981611fc2565b50611e226119a3565b805190919015611f9e575f90807a184f03e93ff9f4daa797ed6e38ed64bf6a1f0100000000000000008181811015611f90575b50506d04ee2d6d415b85acef810000000080831015611f81575b50662386f26fc1000080831015611f72575b506305f5e10080831015611f63575b5061271080831015611f54575b506064821015611f44575b600a80921015611f3a575b6001908160216001860195611ec78761191a565b96611ed560405198896118f9565b808852611ee4601f199161191a565b01366020890137860101905b611f05575b50505050611f0291611d9a565b90565b5f19019083906f181899199a1a9b1b9c1cb0b131b232b360811b8282061a835304918215611f3557919082611ef0565b611ef5565b9160010191611eb3565b9190606460029104910191611ea8565b6004919392049101915f611e9d565b6008919392049101915f611e90565b6010919392049101915f611e81565b6020919392049101915f611e6f565b604094500491505f80611e55565b5050604051611fac816118de565b5f815290565b611f029250611d9a565b50905090565b5f818152600260205260409020546001600160a01b0316908115611301575090565b335f9081527fa70365933f78520ef41d6645ba61e509916296603327302d41466c063e8e260860205260409020547fa49807205ce4d355092ef5a8a18f56e8913cf4a201fbe287825b095693c217759060ff161561203f5750565b6044906040519063e2517d3f60e01b82523360048301526024820152fd5b335f9081527fa4bfd7afe708e2e87e7f0e2ad9b4d545417e0f795f57b5c5ab5d799c565a04f460205260409020547f9f2df0fed2c77648de5860a4cc508cd0818c85b8b8a1ab4ceeef8d981c8956a69060ff161561203f5750565b805f52600760205260405f20335f5260205260ff60405f2054161561203f5750565b90815f52600760205260405f209060018060a01b031690815f5260205260ff60405f205416155f1461215257815f52600760205260405f20815f5260205260405f20600160ff1982541617905533917f2f8788117e7eff1d82e926ec794901d17c78024a50270940304540a733656f0d5f80a4600190565b50505f90565b90815f52600760205260405f209060018060a01b031690815f5260205260ff60405f2054165f1461215257815f52600760205260405f20815f5260205260405f2060ff19815416905533917ff6391f5c32d9c69d2a47ea670b442974b53935d1edc7fd64eb21e047a839171b5f80a4600190565b60ff600854166121d857565b60405163d93c066560e01b8152600490fd5b9293909193843b6121fd575b5050505050565b604051630a85bd0160e11b8082526001600160a01b0395861660048301529385166024820152604481019190915260806064820152602095949093169392908590829081906122509060848301906117a4565b03815f885af15f91816122f4575b506122bd575050503d5f146122b5573d916122788361191a565b9261228660405194856118f9565b83523d5f8285013e5b825192836122b057604051633250574960e11b815260048101849052602490fd5b019050fd5b60609161228f565b9193506001600160e01b0319909116036122dc57505f808080806121f6565b60249060405190633250574960e11b82526004820152fd5b9091508581813d831161232d575b61230c81836118f9565b810103126101f457516001600160e01b0319811681036101f457905f61225e565b503d61230256fea2646970667358221220122a3867da35771781c8018d0d2c8f11e71573ceb9c63815cede7c257199942a64736f6c634300081800332f8788117e7eff1d82e926ec794901d17c78024a50270940304540a733656f0d6d5257204ebe7d88fd91ae87941cb2dd9d8062b64ae5a2bd2d28ec40b9fbf6df","linkReferences":{}},"methodIdentifiers":{"ADMIN_ROLE()":"75b238fc","DEFAULT_ADMIN_ROLE()":"a217fddf","IS_SOULBOUND()":"b26fa538","MINTER_ROLE()":"d5391393","approve(address,uint256)":"095ea7b3","balanceOf(address)":"70a08231","baseTokenURI()":"d547cfb7","batchMint(address[],uint256[],uint256[],string[])":"b3a80e9c","burn(uint256)":"42966c68","exists(uint256)":"4f558e79","getApproved(uint256)":"081812fc","getRoleAdmin(bytes32)":"248a9ca3","getTokenByTask(uint256)":"22541dfc","getTokenMetadata(uint256)":"60316801","grantRole(bytes32,address)":"2f2ff15d","hasRole(bytes32,address)":"91d14854","isApprovedForAll(address,address)":"e985e9c5","isSoulbound()":"f7eca6d0","mint(address,uint256,uint256,string)":"bb7fde71","name()":"06fdde03","nextTokenId()":"75794a3c","ownerOf(uint256)":"6352211e","pause()":"8456cb59","paused()":"5c975abb","renounceRole(bytes32,address)":"36568abe","revokeRole(bytes32,address)":"d547741f","safeTransferFrom(address,address,uint256)":"42842e0e","safeTransferFrom(address,address,uint256,bytes)":"b88d4fde","setApprovalForAll(address,bool)":"a22cb465","setBaseURI(string)":"55f804b3","supportsInterface(bytes4)":"01ffc9a7","symbol()":"95d89b41","tokenURI(uint256)":"c87b56dd","transferFrom(address,address,uint256)":"23b872dd","unpause()":"3f4ba83a"},"id":41}